:020000040800F2
:1000000078080020C10100087F2A0008BD270008E9
:100010007D2A0008BD090008752D000800000000B9
:10002000000000000000000000000000752C000827
:10003000910A000800000000812A0008772C0008BF
:10004000DB010008DB010008DB010008DB01000820
:10005000DB010008DB010008DB010008DB01000810
:10006000DB010008DB010008DB010008DB01000800
:10007000DB010008DB010008DB010008DB010008F0
:10008000DB010008DB010008DB010008DB010008E0
:10009000DB010008DB010008DB010008DB010008D0
:1000A000DB010008DB010008DB010008DB010008C0
:1000B000DB010008DB010008DB010008DB010008B0
:1000C000DB010008DB010008DB010008DB010008A0
:1000D000DB010008DB010008DB010008DB01000890
:1000E000DB010008DB010008DB010008DB01000880
:1000F000DB010008DB010008DB010008DB01000870
:10010000DB010008DB010008DB010008DB0100085F
:10011000DB010008DB010008DB010008DB0100084F
:10012000DB010008DB010008DB010008DB0100083F
:10013000DB010008DB010008DB010008DB0100082F
:10014000DB010008DB010008DB010008DB0100081F
:10015000DB010008DB010008DB010008DB0100080F
:10016000DB010008DB010008DB010008DB010008FF
:10017000DB010008DB010008DB01000800000000D3
:10018000DB010008DB010008DB010008DB010008DF
:10019000DB010008DB010008DB010008DB010008CF
:1001A000DB010008DB010008DB010008DFF80CD0F0
:1001B00000F08CF800480047992F000878080020CC
:1001C0000648804706480047FEE7FEE7FEE7FEE7F1
:1001D000FEE7FEE7FEE7FEE7FEE7FEE7292D000863
:1001E000AD0100082DE9F05F0546002092469B46D0
:1001F00088460646814640241BE02846414647463D
:10020000224600F053F853465A46C01A914110D383
:1002100011461846224600F03AF82D1A67EB0108FD
:100220004F4622460120002100F031F817EB00096B
:100230004E41201EA4F10104DFDC484631462A4627
:100240004346BDE8F09F40EA01039B0703D009E065
:1002500008C9121F08C0042AFAD203E011F8013BB2
:1002600000F8013B521EF9D27047D2B201E000F80B
:10027000012B491EFBD270470022F6E710B513464A
:100280000A4604461946FFF7F0FF204610BD202A13
:1002900004DB203A00FA02F1002070479140C2F1DD
:1002A000200320FA03F3194390407047202A04DB0F
:1002B000203A21FA02F00021704721FA02F3D040DF
:1002C000C2F120029140084319467047064C074D81
:1002D00006E0E06840F0010394E807009847103416
:1002E000AC42F6D3FFF766FF0C4D00082C4D00081A
:1002F0002DE9FC41B74C8046B7493422D4E90005CA
:1003000005FB0211806ACE6D804707462068C06AEF
:1003100080470346002031463A46CDE9000828468A
:1003200000F084FCBDE8FC812DE9F04F85B0A94EBA
:1003300005460C46A2F120014FF00108706800EB61
:10034000400006EB800000698788C3880268F81DBA
:1003500003935943C30800F0F800C01B01FB0321BD
:10036000029357FA80F00191002101380090039820
:10037000814204BF05B0BDE8F08F0198022B0491C3
:1003800001FB030004D0012B07D190F800B00CE072
:100390000178407840EA012B07E0427801788078C4
:1003A000120242EA014101EB000BDDF800A04FF020
:1003B000000915E0716809EB050008FA0AF212EA73
:1003C0000B0F80B201EB410106EB81010CBFCA6843
:1003D0008A68A1B200F064F8AAF1010A09F10109E2
:1003E0004F45E7D10499029B01340131BFE700BFBB
:1003F000CD480068806800B1004770472DE9F0479C
:10040000064698469246894600250024104602E09A
:10041000013D0134013001780029F9D1C24F38681B
:10042000806A80477968B8F1020F01EB410107EB60
:10043000810109698988B0FBF1F007D0B8F1010F9B
:1004400008D1001B484306EB500603E06A42801ABD
:1004500000FB016600251AE0796801EB410107EB1A
:1004600081010969898801FB150080B2884215D392
:100470001AF8012BB0B24946FFF756FF78680135EC
:1004800000EB400007EB8000006980880644386874
:100490009AF80040806A8047002CDDD1BDE8F087E3
:1004A000F8B50646A04814460D464B4A3423D0E919
:1004B000001000FB0320C76D886A804700FB0560C1
:1004C00047F82040F8BD00BFF8B5434C002503268F
:1004D0001D200121092740F2471C40F2171E40F25F
:1004E000431240F20D1384F83650C4E90571C4E993
:1004F000070617488C4EC4E90932C4E90BEC082101
:1005000020604FF40030A58670640420B063C020E2
:100510003063304640F8201F01F070FAC4E90155FD
:10052000C4E9035500F05CF8204601F0ADF8094835
:1005300030600068804700F0F9F87068274900EBE8
:10054000400006EB80000161002001B0F0BD00BF5B
:100550000068014018000020F0B58DB0724E0446CE
:1005600000270D4600973068806A8047CDE9010773
:100570003068C06A80470995CDE90307FF208DF8F0
:100580003270ADF8307006970590072008904FF450
:10059000C06007903068806A80470A903068C06AFF
:1005A00080470D4D0B9069462246284601F032F8EF
:1005B00004EB440009494FF0FF324FF07F4306EB54
:1005C0008000C0E902320161284601F047F80DB011
:1005D000F0BD00BFC40000201C0200200800002065
:1005E000F0B585B00020F049484DF14F6C460090C1
:1005F0004A6942F080624A614A6902F08062009270
:10060000009A00900A6842F400020A600A6802F444
:1006100000020092009A00900A6842F001020A600B
:100620000A6802F001020092009A00900A6842F003
:1006300002020A600A6802F002020092009A009028
:100640000A6842F004020A600A6802F0040200929A
:10065000009A00900A6842F008020A600A6802F0F4
:1006600008020092009A00900A6842F020020A6094
:100670000A6802F020020092009A00900A6842F094
:1006800040020A60096801F04001009100990E21C2
:10069000049102210391CDE9011041F65800214651
:1006A00000902846B8474FF4706005F580662146F3
:1006B00000903046B8474FF498602146009005F509
:1006C0000060B84748202146009005F54060B847D3
:1006D0004FF480602146009005F5A050B8474FF4D4
:1006E0000C6005F5C055214600902846B847092002
:1006F00021460490032000903046B8474FF4A050A4
:10070000214600902846B84705B0F0BD00000240E1
:1007100005494860704700BF03494A6802EB42023E
:1007200001EB820188607047C400002070B53F4E25
:100730004FF4005000214FF4006C4FF4C07240237E
:1007400010250424C6E91510012006F1340EAEE888
:100750003300C6E91132C6E9131C072102203546D1
:10076000C6E906143446C6E90810C6E90A000021A5
:1007700044F8140F0A4845F8300F284600F05AF89C
:100780002846214601F074FCB0FA80F04009307030
:1007900040F26A5000F006F8307880F0010070BD39
:1007A000400100A02DE9F84F204D4FF00109DFF87E
:1007B00080B0804600244FF0080A4FF6FF7245F8DB
:1007C000049F05F12C062946C5E901A9EC600094B7
:1007D0003046D847012000F03BFC022029464FF666
:1007E000FF72C5E9000A3046C5E90294D8470320E4
:1007F000042729464FF6FF72C5E9000A3046C5E9CD
:100800000274D8474FF40C7029464FF6FF720090DF
:100810000098C5E9007AC5E902903046D8473046CD
:100820004146BDE8F84F01F0B7BC00BF14010020FD
:10083000BD210008002800F0B6802DE9F04186B007
:10084000804600275848594D594C01AE01978168A0
:1008500041F001018160816801F00101019101997C
:100860000197016841F480010160016801F4800191
:10087000019101990197016841F00201016001684D
:1008800001F00201019101990197016841F0040111
:100890000160016801F0040101910199019701686B
:1008A00041F008010160016801F00801019101991E
:1008B0000197016841F010010160016801F0100129
:1008C000019101990197016841F0200101600168DF
:1008D00001F02001019101990197016841F0400167
:1008E00001603146006800F040000190019802204C
:1008F000049002900C2005906020039701902846F8
:10090000A04701203146019005F58060A0474CF2D8
:1009100003703146019005F50060A0474FF68370E3
:100920003146019005F54060A0474FF63F00314643
:10093000019005F58050A04748F2331031460190F0
:1009400005F5A050A0471B4D4FF4003103201A4C71
:100950004FF480624FF400738026C5E90817C5E99B
:100960000A074FF480404FF480512F63C5E90047D8
:10097000C5E90263C5E90421C5E906072846C8F8A8
:100980003050C5F8388000F0A2FA284600F0CCFAC2
:1009900038200F21002200F0CBFF382000F0BAFFF2
:1009A00006B0BDE8F0417047303802400004024014
:1009B0004D1100087801002010640240FEE700009D
:1009C000B0B50568DDF810C06C6C4CEA034304F068
:1009D000404423436B64EA634268B2F5403F1CBF66
:1009E000E960B0BD80685FFA81FE01F47F4C01F4DC
:1009F0007F02032806D8DFE800F03002142021F03F
:100A00007F412AE06FF0FF0000EA12304FF470429D
:100A100002EA114141EA1E110844F02101EA1C21B9
:100A20001AE04FF478416FF01F0001EA122100EA4A
:100A30005C1041EADE0101440FE04FF4F84000EAA7
:100A400052204FF4004202EA114141EADE0108441B
:100A50006FF01F0101EA9C110144A963B0BD0000C1
:100A600001686FF00F0240F2FF3352FA81F29943AE
:100A700018235F2AB2FBF3F203A388BF0431816518
:100A80009A5CC265084670470006101600061016EC
:100A900070472DE9F0410B680268012B1ED1D1E9A6
:100AA00001E7D1E90365D1E9058CD1E9073422F4E6
:100AB000F842496A1A43224311434268016047F6EB
:100AC000FF7122EA010141EA0E0139433143294312
:100AD00041EA080141EA0C01416019E047F6FF7361
:100AE00001F1140822EA030CD1E90132D1E903E44F
:100AF00098E8E001496A43EA0C031A4342EA0E020D
:100B000022432A4332433A4342EA08021143016036
:100B10000020BDE8F081426942EA410141610020C4
:100B20007047F8B50546002014466FF01F07009087
:100B300091E80D00C96807EB43131043184340EADE
:100B4000412000900098286100F0CCFB0646671C0D
:100B5000A869800609D5002FFAD024B100F0C2FBA5
:100B6000801BA042F4D9032000E0002001B0F0BDBA
:100B7000F0B58368012A28D12B4A284F1A4091E802
:100B80002810D1E9034ED1E9056107EB0434013B9C
:100B900001392243234C04EB06542243C46882608B
:100BA0006FF00F0204F0704402EB051223431A4366
:100BB0006FF0FF0303EB0C231A43194B03EB0E43B7
:100BC0001A4342EA0161C16025E0D1E900C26FF039
:100BD0000F0503F07043D1E902E405EB0212ACF11A
:100BE00001052B431A436FF0FF0303EB0E231A4357
:100BF0000A4B03EB04330A4C1A430B6904EB03431F
:100C0000084C1A434B69896904EB035301391A43B1
:100C100042EA016181600020F0BD00BF00F0FFFFEB
:100C20000000FFFF0000F0FFFF0F0FFF2DE9F8436A
:100C30000D46074612480899594C1E4691464FF4F6
:100C400040330022C0E90043C0E9022100F068F807
:100C500070B90B48DDF82480394600F013F838B934
:100C6000074841462A464B46009600F014F908B161
:100C7000BDE8F88302480A21BDE8F84300F094B8C3
:100C8000D801002090F838300222012B43D070B5F3
:100C900080F83920012200EB011380F8382003F19D
:100CA000180ED3E907425E6AA4F1090C350644EA3E
:100CB0000242BCF1020F38BF06F07F45036842EAEA
:100CC000050481B1D969154ABCF1010F01EA02019D
:100CD00041EA0401D961DEF8001019619CBF26F0D9
:100CE0007F4119620FE0596A0C4ABCF1010F01EA19
:100CF000020141EA04015962DEF8001099619CBFCB
:100D000026F07F4199620022012180F8382080F886
:100D10003910BDE870401046704700BFF0FFFC007E
:100D200038B310B5044690F8390028B9002084F88B
:100D30003800204600F020F8022084F839002068AE
:100D40000168626821F4403111430160416BA2687F
:100D500021F00701114343F6FF724163016C914397
:100D6000E2681143016400200121E06384F8391036
:100D700010BD01207047000000680949884218BF73
:100D8000704781B0002000900648016841F40001DE
:100D90000160006800F400000090009801B0704706
:100DA00000B0024030380240F8B5044600200D463D
:100DB000009020680168C90716D000F093FA064633
:100DC0006F1C2068416889070ED441680091009922
:100DD00011F0210F2FD1002FF3D000F083FAF5B1DD
:100DE000801BA842EDD91AE0C169426A1143890605
:100DF0001CD500F077FA06466F1C20684168C906CA
:100E000014D441680091009911F0290F23D1002FCB
:100E1000F3D000F067FA15B1801BA842EDD9E06B62
:100E2000032140F02000E06303202DE012218160C7
:100E30000020012128E00099890642BFE16B41F0C2
:100E40000201E1630099C9071EBFE16B41F0010196
:100E5000E163212115E00099090742BFE16B41F0F0
:100E60000401E1630099890642BFE16B41F0020190
:100E7000E1630099C9071EBFE16B41F00101E16325
:100E80002921816001200421002284F8382084F87F
:100E9000391001B0F0BD1CB590F838C004460220EE
:100EA000BCF1010F11D084F839000120DDF810C029
:100EB00084F838002046CDF800C0FFF781FD206897
:100EC000016841F001010160002002B010BD70B561
:100ED00030B1054690F83500022803D1022421E004
:100EE00001241FE028680024016821F0010101604D
:100EF0002121046044608460C4600461416128462B
:100F0000FFF7AEFD064605F13C001821FFF7B4F9E6
:100F1000E86D3F2101FA00F0B0606C6585F834405F
:100F200085F83540204670BD2DE9F041044600F0BB
:100F3000D9F9002C4FD00546022084F83500002056
:100F400084F834002168086820F00100086005E09A
:100F500000F0C8F9401B052840D821680868C00780
:100F6000F6D10868394AD4E9013504F10C0800EAE1
:100F7000020C98E8C101D4E9072E43EA0C032B4385
:100F80001843636A30433843042B40EA080040EAC0
:100F9000020040EA0E0225D1D4E90BE042EA0E023B
:100FA000BEF1000F40EA0200086051F8140FA26A77
:100FB00020F0030040EA020040F0040C19D0B8F51C
:100FC000005F28D0B8F1000F35D1022A36D0012AAF
:100FD0002BD09AB30DE00120BDE8F081032520233A
:100FE000032013E00A6051F8140F20F0070040EAD4
:100FF000030C2046C1F800C0FFF732FDE16D3F222F
:101000000023012502FA01F181600020636584F864
:101010003550BDE8F081032AEBD80125402301209B
:10102000DFE802F0020C0203F0E7AEF1C070B0FAA4
:1010300080F0400904E0032A04D3DAD1CEF3006043
:101040000028D6D0012540230120DFE73F8010F0A3
:10105000B0B5044600F046F905460548611C007825
:1010600018BF044400F03EF9401BA042FAD3B0BDC3
:10107000000000202DE9F04F914A4FF00A0A4FF08E
:1010800000094FF0010C4FF00008002790428D4AF4
:1010900008BF4FF0090A02444FEAB223092B38BFB8
:1010A0004FEAB22A884AA2F57E7B102F08BFBDE81E
:1010B000F08F0CFA07F20A4242D0BC0809F00C0E7D
:1010C0000F235BF824C003FA0EF60AFA0EF30CEABB
:1010D00006059D4214D15BF82430B3434BF824300D
:1010E000794B1E461B689343336073689343736068
:1010F000B3689343B360754B1E461B6893433360DC
:10110000032306680F25D2434FF0010C03FA08F3BE
:101110009E43066009F01C0605FA06F66FF003050B
:1011200005EA570505442C6A24EA06062E628668FD
:101130009E438660466832404260C2689A43C260FD
:1011400009F1040908F102080137AEE72DE9F84F6B
:101150005B4A4FF00A0A4FF0010B4FF000084FF0C6
:10116000000E9042574A08BF4FF0090A02444FEA66
:10117000B223092B38BF4FEAB22A0022102A08BF37
:10118000BDE8F88F0B680BFA02F6334200F091804D
:101190004B6843F01004122C13D16FF003040EF0CF
:1011A0001C030F2704EA520507FA03FC05442C6AC6
:1011B00024EA0C0C0C6904FA03F343EA0C032B62D7
:1011C0004B68032703F00305122B07FA08F407689E
:1011D00005FA08F56FEA040C27EA040747EA050751
:1011E000076013D80BFA03F414F0061F0ED08468BE
:1011F000CD6804EA0C0405FA08F52C438460C3F3B7
:10120000001445689440B5432C434460C4688D681D
:10121000DB0004EA0C0705FA08F547EA0507C76092
:1012200047D50023284C0EF00C050093284BA4460C
:101230001F461B6843F480433B603B6803F48043D4
:10124000009322F003032344224C009FA1461F5920
:101250000F24AC400AFA05F5A7432F4343F8097061
:10126000DCF800304D6843EA0607EC0358BF23EA78
:101270000607CCF80070AC03DCF8043043EA06073C
:1012800058BF23EA0607CCF80470EC02DCF80830FB
:1012900043EA060758BF23EA06070C4BCCF8087050
:1012A000AD021C461B6843EA060758BF23EA06073F
:1012B000276008F102080EF1040E01325EE700BF5C
:1012C000002402400000FEBF003C01400C3C0140F5
:1012D0004438024008FCFFFF002A08BF090481616E
:1012E00070470000AD480068704700BF90F83D208F
:1012F000202A1CBF02207047242280F83D2002686B
:10130000136823F001031360536A23F01003536240
:10131000536A19435162116841F0010111602021A3
:1013200080F83D100020704790F83D20202A1CBF17
:1013300002207047242289B280F83D200268136899
:1013400023F0010313604FF6F073D2F824C003EAD0
:101350000C0319435162116841F001011160202111
:1013600080F83D1000207047B0B520B3044690F8D7
:101370003D0028B9002084F83C00204600F0AEF87B
:10138000242084F83D002068016821F001010160FB
:1013900000F0C4FC4C494D4B00224D4D88424FF0AB
:1013A000000138BF0121984238BF01226368AB4277
:1013B00038BF0A460AB10120B0BD4649B0FBF1F280
:1013C00021684D6825F03F0515434D600D6A25F0F5
:1013D0003F0C414DAB4213D80132013842EA0C02B6
:1013E0000A625A004CF6FF73B0FBF2F001306FF363
:1013F0001F30042898BF0420CA6922EA030C3AE08F
:101400004FF49675A0F1010E6A434FF47A75B2FB62
:10141000F5F24CF6FF75013242EA0C020A62CA6923
:1014200022EA050CA26842B1192004255843BEFBEC
:10143000F0F0013065F31F3006E003EB4300BEFB24
:10144000F0F001306FF31F30000509D052B11920C0
:1014500004225843BEFBF0F0013062F31F3008E075
:10146000012008E003EB4300BEFBF0F001306FF316
:101470001F3040F4004040EA0C00C8610868D4E91D
:10148000072320F0C000104348F2FF3218430860E1
:1014900088689043D4E90323184310438860C868E0
:1014A000D4E9052320F0FF0010431843C860086802
:1014B00040F00100086000202021206484F83D10E5
:1014C000206384F83E00B0BD80841E0000093D000A
:1014D000A186010040420F00A08601002DE9F04FD7
:1014E00087B0044602A81421FEF7C6FE2068264EE7
:1014F000B04246D14FF00008F84D02AC4FF004095D
:101500004FF0030A4FF0010B1227CDF8048021465B
:10151000286840F004002860286800F0040001906A
:101520000198CDF80480286840F001002860286800
:1015300000F0010001900198CDF81890CDF814A0AA
:10154000CDF810B003974FF40070029006F5D63036
:10155000FFF7FCFD4FF48070CDE905A9CDE9037BD1
:101560002146029006F5D230FFF7F0FDCDF8048059
:10157000286940F400002861286900F40000019007
:10158000019807B0BDE8F08F005C00401F48034998
:1015900000780A6810440860704700BF700400209B
:1015A00080B50B48016841F400710160016841F4A5
:1015B00080610160016841F480710160032000F0E6
:1015C000D5F9002000F006F800F08AF9002080BD6F
:1015D000003C024070B50D4E04464FF47A713078ED
:1015E000B1FBF0F00A490968B1FBF0F001F0D2F864
:1015F00001250F2C08D838B94FF0FF3021460022C2
:10160000002500F095F97460284670BD00000020A8
:1016100014000020F8B50E4690F8A01004460220F1
:10162000012919D084F8A10034200127154631463C
:1016300002FB0040342284F8A0703830FEF703FE2D
:10164000204631462A4601F085F92068476200208D
:1016500084F8A00084F8A17001B0F0BD90F8A0203B
:101660000221012A0CD080F8A11006490A6842F430
:1016700080320A600021012280F8A01080F8A120A9
:101680000846704718680140002866D0B0B5044687
:1016900090F8A10028B9002084F8A000204600F0AE
:1016A00061F802202E4D84F8A1002068816921F0A4
:1016B00070418161D4E901C2D4E9033142EA0C02EC
:1016C0001A43114382691143816182682A40826012
:1016D000D4E90523816843EA024211438160C1686D
:1016E0002940C160D4E90712C36842EA01411943A5
:1016F000C160016929400161D4E90912036942EA24
:10170000014119430161416929404161D4E90B124A
:10171000436942EA01411943416194F8362094F843
:101720003510C36A03F07F431204C36242EA012109
:1017300094F834201144C26A1143C162416B41F0F4
:1017400006014163816941F00101816100200121AD
:10175000C4F8A40084F8A110B0BD0120704700BFF8
:1017600000F800F02DE9F04F87B0044602A81421DC
:10177000FEF782FD2068584A904240F0AA80002679
:1017800056484FF00E090227DFF8088A02AC93464C
:101790000196416941F080614161416901F08061D8
:1017A000019101990196016841F0200101600168F1
:1017B00001F02001019101990196016841F00101B8
:1017C0000160016801F00101019101990196016830
:1017D00041F002010160016801F0020101910199EB
:1017E0000196016841F040010160016801F040018B
:1017F000019101990196016841F0040101600168BD
:1018000001F00401019101990196016841F008017C
:1018100001602146006800F0080001900198CDF8B1
:101820001890CDE9046603974FF48060029002F5AA
:101830002C40C04741F65800CDE90569CDE9037653
:10184000214602900BF51840C0474FF0090A0320CB
:101850000BF51C452146CDE9056ACDE903760290DA
:101860002846C0474FF47060CDF81890CDE9046663
:101870002146CDE902072846C0474FF40C600BF51E
:101880003045CDE90569CDE9037621460290284629
:10189000C0474FF49860CDF81890CDE90466214612
:1018A000CDE902070BF52040C0474820CDE9056986
:1018B000CDE90376214602900BF52440C0474FF452
:1018C000A050CDE9056ACDE903762146029028466D
:1018D000C04707B0BDE8F08F0068014030380240D3
:1018E00082B00020424901904A6842F480424A6036
:1018F0004A6802F480420192019A0090086840F020
:1019000080500860086800F080500090009802B095
:10191000704700BF002808DB00F01F0101224009CA
:1019200002FA01F1014A42F82010704700E100E09C
:1019300080B5144B1B68C3F3022CBCF1030E8CF072
:1019400007034FF0FF3C38BF4FF0000E042B28BFB9
:1019500004230CFA03F399430CFA0EF301FA0EF187
:101960009A431143BDE8804001F006BA05494FF69D
:10197000FF030A681A4060F30A2203481043086014
:10198000704700BF0CED00E00000FA057CB50020B8
:10199000184E194D01901648016841F080510160C0
:1019A000006800F080500190019801203060FFF73E
:1019B00099FC04462868C00306D4FFF793FC001B7B
:1019C000B0F57A7FF6D90DE001207060FFF78AFC50
:1019D00004462868800307D4FFF784FC001BB0F599
:1019E0007A7FF6D9032000E0002002B070BD00BF6E
:1019F0004038024040000E4204700040F8B50446F2
:101A00000068C44E81073ED0784F00203860FFF751
:101A100069FC05463068000105D5FFF763FC401BF3
:101A20000228F7D99EE02068C10706D0D4E9011248
:101A3000120742EA8111C6F88410800714D5D6F83F
:101A400084006168E26800F0E04040EA811040EA0A
:101A50000260C6F88400D6F88C00E16920F01F000F
:101A600001390843C6F88C0001203860FFF73AFCC2
:101A700005463068000105D4FFF734FC401B0228FE
:101A8000F7D96FE0206810F00C0F4ED0574F0020B0
:101A9000B860FFF727FC05463068800005D5FFF7E2
:101AA00021FC401B0228F7D95CE02068410717D5CC
:101AB000D6F88810D4E9042301F0E04141EA82110C
:101AC00041EA03616FF0FF03C6F88810D6F88C1066
:101AD000226A03EB022221F4F8511143C6F88C105C
:101AE000000713D5D6F888002169A26900F070605C
:101AF00040EA811040EA0270C6F88800D6F88C00EF
:101B0000616A20F440300843C6F88C000120B860B8
:101B1000FFF7E8FB05463068800005D4FFF7E2FBDD
:101B2000401B0228F7D91DE02068810653D500200C
:101B30002F4F0090306C40F080503064306C00F0DB
:101B4000805000900098386840F480703860FFF74B
:101B5000C9FB05463868C00506D4FFF7C3FB401B28
:101B60000228F7D903203EE0306F10F440701FD0F8
:101B7000A16A01F4407188421AD0306F1D490122D8
:101B80000A60002220F440700A603067306FC0079E
:101B90000ED0FFF7A7FB054641F28837306F80076C
:101BA00006D4FFF79FFB411B0320B942F6D91AE088
:101BB000A06AB268104900F4407322F4F8120140A0
:101BC0006FF31F30B3F5407F08BF0A43B260316F37
:101BD000084330672068C00642BF94F82C000549CE
:101BE000C1F8A003002001B0F0BD00BF680047426B
:101BF00000700040400E4742FFFCFF0F2DE9F0410E
:101C0000002800F08380434B04468846D3F8000444
:101C100000F00F00884207D283F80084D3F8000454
:101C200000F00F00404571D12068810711D54107B0
:101C300042BF996841F4E0519960010742BF996839
:101C400041F4604199609968A26821F0F001114364
:101C50009960C0072AD06068811E022903D21968E2
:101C6000890109D452E0012803D11968890303D4FA
:101C70004CE01968890749D599681D4621F0030190
:101C800008439860FFF72EFB064641F28837A868A4
:101C900061682B4600F00C00B0EB810F06D0FFF717
:101CA00021FB801BB842F2D9032430E0D3F80004B2
:101CB00000F00F00404507D983F80084D3F80004F2
:101CC00000F00F00404521D12068410705D59968F3
:101CD000E26821F4E05111439960000706D5986845
:101CE000216920F4604040EAC10098601C4600F081
:101CF00025F8A168084A0024C1F30311515CC840CB
:101D00000B4908600020FFF765FC00E00124204635
:101D1000BDE8F081003802401A3200080448054945
:101D2000054A00680968C1F38221515CC8407047C8
:101D300014000020083802402A32000810B5134C65
:101D4000606800F00C00082804D0042814BF104874
:101D5000104810BD226820680023400202F03F02B4
:101D60000C485CBF42F20040C0F2F4002168C1F3AD
:101D70008811A0FB0101FEF735FA21680222C1F3A8
:101D8000014102EB4101B0FBF1F010BD043802400B
:101D90000024F40040787D012DE9FC41002800F08A
:101DA000058104460078AF4EC0072FD0B06800F020
:101DB0000C00042823D0B06800F00C00082802D1E1
:101DC000706840021BD46768B7F5803F07D0306861
:101DD000B7F5A02F40F00B8140F4802030603068D0
:101DE00040F480303060FFF77DFA054630688003AC
:101DF0000CD4FFF777FA401B6428F7D99DE03068D0
:101E0000800303D56068002800F0D0802078800728
:101E10002BD5B06810F00C0F07D0B06800F00C00A4
:101E2000082809D17068400206D43068800715D5AB
:101E3000E068012812D0B9E0E1688B4800297ED023
:101E400001210160FFF74EFA05463068800705D48E
:101E5000FFF748FA401B0228F7D96EE03068216985
:101E600020F0F80040EAC10030602078000721D55A
:101E7000606978B17C480121C0F8801EFFF732FA12
:101E80000546706F800715D4FFF72CFA401B022817
:101E9000F7D952E074480021C0F8801EFFF722FAFB
:101EA0000546706F800705D5FFF71CFA401B022816
:101EB000F7D942E02078400770D5306C4FF0000829
:101EC000C0000CD4CDF804804FF00108306C40F015
:101ED00080503064306C00F0805001900198634F66
:101EE0003868C0050FD4386840F480703860FFF758
:101EF000F9F905463868C00505D4FFF7F3F9401B2A
:101F00000228F7D919E0A768012F05D0306F052FF7
:101F100025D140F004003067306F40F00100306799
:101F2000FFF7E0F9054641F28837306F80072ED47D
:101F3000FFF7D8F9401BB842F7D9032037E000215A
:101F40000160FFF7CFF90546306880077FF58DAF58
:101F5000FFF7C8F9411B03200229F5D927E020F03B
:101F600001003067306F20F004003067FFF7BAF9E6
:101F70000546002FD7D141F28837306F800706D54C
:101F8000FFF7B0F9411B0320B942F6D90FE0B8F1D1
:101F9000000F1EBF306C20F080503064A769002F06
:101FA0005DD0B06800F00C00082803D1012002B019
:101FB000BDE8F0812C49002088460866FFF792F9B9
:101FC0000546022F09D13068800128D5FFF78AF92C
:101FD000411B03200229F6D9E9E7306880013ED58C
:101FE000FFF780F9411B03200329F6D3DFE720F434
:101FF00080303060306820F480203060FFF772F964
:102000000546002F7FF4F2AE306880037FF5FEAE08
:10201000FFF768F9411B03206429F5D9C7E704F1EC
:102020001C078FCF0843D90340EA82104FF6FF7296
:10203000914340EA0760A1F58031084370600120B8
:10204000C8F86000FFF74EF904463068800106D4F6
:10205000FFF748F9011B03200229F6D9A7E7002062
:10206000A5E700BF00380240000047420070004072
:10207000E0B1B0B5044690F82C000D4628B9002018
:1020800084F82D00204600F013F80220211D84F86A
:102090002C002068FEF7FDFCD4E900022946FEF77B
:1020A00067FD012084F82C000020B0BD012070479E
:1020B0002DE9F04F87B002A81421FEF7DDF8324871
:1020C000017800295DD14FF0010B4FF00009304C31
:1020D0004FF00C084FF0030A02262E4F02AD80F895
:1020E00000B02A48CDF80490016841F00101016078
:1020F0002946006800F0010001900198CDF8188091
:10210000CDE9049A03964FF63F00029004F5805003
:10211000B84704F580602946CDF81880CDE9049AC7
:10212000CDE902B6B84703A8CDF81880294680E863
:10213000400648F23310029004F5A050B84703A8B7
:10214000CDF81880294680E840064FF6837002904B
:1021500004F54060B84703A8CDF81880294680E808
:1021600040064CF20370029004F50060B84703A8E3
:10217000CDF81880294680E840066020029020466D
:10218000B84707B0BDE8F08F180200203838024089
:10219000000402404D11000810B590F82C200446B0
:1021A0000220022A08BF10BD84F82C002068FEF728
:1021B000B2FC012084F82C00002010BDB0B50D4603
:1021C00090F82C1004460220022908BFB0BD84F804
:1021D0002C0029462068FEF7A4FC2868012102286B
:1021E0004FF0000008BF052184F82C10B0BD98B155
:1021F00010B50446022084F851002068016821F0DF
:1022000040010160204600F04BF80020606584F832
:10221000500084F8510010BD0120704790F8510023
:10222000704770B5C8B3002605464FF0000C8662B3
:1022300090F8510030B9284685F8506000F042F817
:10224000D5F828C0022185F8511029680A6822F0C3
:1022500040020A60D5E90123D5E903041A4310437B
:102260006A6920431043AA6902F400731843EB69BA
:1022700018432B6A184340EA0C000860042000EA67
:1022800012406A6A10434860C86920F40060C8615F
:1022900001206E6585F8510000E00126304670BDD2
:1022A00001682148814218BF7047054900F5444044
:1022B0000A6822F480120A604FF46071FEF7DABEF9
:1022C0004438024010B586B0044601A81421FDF739
:1022D000D3FF21681448814224D10021134A00F51C
:1022E00044400091536943F480135361536903F4EC
:1022F00080130093009B0091136843F02003136048
:10230000126802F020020092009A05220592032230
:10231000CDE90312022102914FF46071019101A9EC
:10232000FEF714FF06B010BD0050014030380240E7
:102330002DE9F843044640681D4617460E46B0F5A1
:10234000827F02D1A06800287AD094F8500001283A
:1023500001D102207EE04FF0010984F85090FEF791
:10236000C1FF804694F85100012862D10120002E5F
:1023700060D0002F5ED0042084F8510000206065FA
:10238000E787A787A663A0862063C4E91000E086DC
:102390006E1CA1682068B1F5004F02BF016821F4EE
:1023A00080410160016849065EBF016841F040015B
:1023B0000160E068A0B92CE020688168C90707D1F6
:1023C000FEF790FF66B1A0EB0800A84208D344E0F6
:1023D000C068A16B21F8020BA163E08F0138E08790
:1023E000E08F0028E8D117E020688168C90707D18D
:1023F000FEF778FF6EB1A0EB0800A84209D32CE0ED
:10240000007BA16B0870A06B0130A063E08F0138E6
:10241000E087E08F0028E7D120462946424600F0B9
:1024200030FB08B120206065606D002818BF0120D6
:1024300000E00220002184F8501084F8519009E057
:102440000420314632463B4684F851002046009530
:1024500000F0B6F801B0BDE8F0830320EAE72DE90B
:10246000F843044690F85000012801D10220A4E06E
:102470004FF001091D4616460F4684F85090FEF7AE
:1024800031FF804694F85100012854D10120002FDB
:1024900000F08E80002E00F08B80032084F8510025
:1024A00000206065E686A6862763A087A063C4E94E
:1024B0001000E087A1682068B1F5004F02BF0168F5
:1024C00041F480410160016849065EBF016841F046
:1024D000400101606268711EE368B1FA81F1B2FAED
:1024E00082F24909B3F5006F4FEA521241EA020144
:1024F00023D131B137F8021BC1602763E08E013868
:10250000E0866E1C13E020688168890707D4FEF717
:10251000E9FE66B1A0EB0800A84208D347E0216BB2
:1025200031F8022BC2602163E08E0138E086E08E34
:102530000028E8D124E002203AE039B1397801736B
:10254000206B01302063E08E0138E0866E1C14E0C1
:1025500020688168890707D4FEF7C4FE6EB1A0EB3E
:102560000800A84209D322E0216B09780173206B8F
:1025700001302063E08E0138E086E08E0028E7D14C
:1025800020462946424600F0A5FA08B120206065A1
:10259000A06838B9002000902068C1680091806868
:1025A00000900098606D002818BF012000E0032013
:1025B000002184F8501084F8519001B0BDE8F083F8
:1025C0002DE9F843044690F85000012801D102207B
:1025D000C7E001201E4615460F4684F85000FEF75E
:1025E00081FE94F85110814601296BD10120002F02
:1025F00000F0B180002D00F0AE80002E00F0AB8026
:1026000094F85100DDF8208004281CBF052084F8D0
:10261000510000206065E687A563A6872763C4E9AB
:102620001000A686E6862068016849065EBF01683C
:1026300041F0400101606268711EE368B1FA81F106
:10264000B2FA82F24909B3F5006F4FEA521241EA39
:10265000020145D131B137F8021BC1602763E08E1A
:102660000138E086012608F10105E08E10B9E08FFF
:10267000002879D02068816889070CD5E18E012E69
:1026800009D141B1216B002631F8022BC2602163D0
:10269000E18E0139E1868168C9070AD0E18F41B135
:1026A000C068A16B012621F8020BA163E08F0138FD
:1026B000E087FEF717FE002DD7D0A0EB09004045BC
:1026C000D3D347E06068B0F5827F07D102200429A8
:1026D00041D1A16800293FF489AF3CE002203AE0F3
:1026E00039B139780173206B01302063E08E0138F5
:1026F000E086012608F10105E08E08B9E08F98B365
:102700002068816889070ED5E18E012E0BD151B169
:10271000216B002609780173216B20680131216348
:10272000E18E0139E1868168C9070BD0E18F49B19B
:10273000C068A16B01260870A06B0130A063E08F18
:102740000138E087FEF7CEFD002DD5D0A0EB0900C3
:102750004045D1D30320002184F85010012184F892
:10276000511001B0BDE8F083204641464A4600F0D2
:10277000B1F918B1202060650120ECE7A1680020C4
:102780000029E8D100902168CA6800928968009108
:102790000099E0E7411E0020B0EB116F1CBF012043
:1027A0007047044AF023516003490B700721906081
:1027B0001160704710E000E023ED00E0FEE7FEF757
:1027C00047BC00002F48017800295AD12DE9F04F6D
:1027D00087B04FF0010800272B4D5C4C0DF1080924
:1027E0004FF0020ADFF8A4B080F800800297494653
:1027F000286804F5806640F008002860286800F02A
:10280000080002900298CDF814A0CDE903874FF498
:10281000005002903046D84701974946286840F05A
:1028200008002860286800F0080001900198CDE9B0
:10283000047A4FF48050CDE902083046D84701971A
:102840004946286840F004002860286800F0040029
:1028500001900198CDF814A0CDE9038704200290DF
:102860002046D847204604210022FEF735FD2046A9
:1028700004210122FEF730FD00F0A0F907B0BDE809
:10288000F04F704719020020303802404D11000807
:10289000F8B52E4C0E460746042100222046FEF7CE
:1028A0001BFD04F580654FF4005100222846FEF719
:1028B00013FD384600F0CAF9EC4869463246036811
:1028C000EB48FFF735FD08B100F070F9009E28468F
:1028D0004FF400510122FEF7FFFC204604210122A3
:1028E000FEF7FAFC304601B0F0BD00BF70B5174CE2
:1028F000174E05464FF40051012204F58060B047A1
:10290000204604210022B047284600F09FF92046C7
:10291000042101223346BDE87040184770B50B4CC6
:102920000B4E05464FF40051002204F58060B0477D
:10293000204604210022B047284600F087F92046AF
:10294000042101223346BDE87040184700080240C8
:10295000D912000870B50068D1F804C000EBC213AA
:10296000D0F80CE0D3F8882002F47042C3F8882035
:10297000404A02EA0E02D1F800E0C46802EB0C42C1
:10298000C4F30B44744401342243C3F88820CA685A
:10299000C468D3F88C5005F470456FF3DF24C3F896
:1029A0008C5022448C68C0686FF3DF2020440130D3
:1029B00040EA0240C3F88C00D3F8940020F00700EE
:1029C000C3F894000869C3F89400072891F83250BE
:1029D0008A6991F83140D3F89C604FF000064FEAC5
:1029E0000545C3F89C6045EA042444EA026291F874
:1029F0003040224440F20774C3F89C20D3F898205A
:102A000022F0FF02C3F898204A69C3F89820D3F84F
:102A1000A02022EA0402C3F8A020D1E9072442EA58
:102A20000402C3F8A020D3F8AC20C3F8AC60ACEB30
:102A30000E064A6AC3F8AC2003F184039ABF0E4A1B
:102A400052F820000120DA6A02F0E022DA628A6A93
:102A500042437043033040EA024040F2FF72D862C2
:102A6000186B90431863C86A1863186840F0010037
:102A7000186070BD0000FF0FEC4C0008FEE77047C7
:102A8000704710B50446406894460A46B0F5827F08
:102A90000ED1A068B0F5004F02D0B0F5806F0AD11A
:102AA0002168B0F5806F0B6823F040030B6002D102
:102AB0002046012101E020468021634600F036F8DF
:102AC00000280FBF0020606D40F02000606518BF37
:102AD000032010BD1CB50446124813460A4612498D
:102AE0000068B0FBF1F04FF47A71484301906068E0
:102AF000B0F5827F0AD12046802100F017F870B12E
:102B0000606D40F020006065032009E0019830B15D
:102B1000019801380190206880680006F6D40020F2
:102B200002B010BD1400002000366E012DE9F04106
:102B3000984616460F460446551C20688068384063
:102B4000B8421CBF0020BDE8F081002DF5D0FEF793
:102B5000C9FBA0EB0800B042EFD32068416821F028
:102B6000E00141606168B1F5827F0AD1A168B1F5E9
:102B7000004F02D0B1F5806F03D1016821F0400110
:102B80000160A16AB1F5005F07D1016821F400512D
:102B90000160016841F400510160002084F8500098
:102BA000012084F851000320BDE8F08180B5304851
:102BB000FFF71DFBBDE88040AFF30080B0B586B0E5
:102BC0002B4C2046FFF72AFBD0BB1E4D00220723CB
:102BD0004FF482701821C4E90822C4E90A234FF493
:102BE0000073C4E900501848C4E90222C4E9042271
:102BF000C4E906310192416941F4801141614169A2
:102C000001F48011019101990192016841F02001C4
:102C1000016001A9006800F02000019001980520E2
:102C20000590012004900220CDE902004FF460706D
:102C3000019005F54440FEF789FA2046FFF7F1FAC6
:102C400006B0B0BD0050014030380240E0B5ADF8EC
:102C5000060006480DF10601012203680448FFF74B
:102C6000FEFB08B1FFF7A2FF8CBD00BF10000020E3
:102C7000C40200207047FEF789BC0000F0B59DB08B
:102C800011AD1421281DFDF7F7FA6C462C21201DEB
:102C9000FDF7F2FA0026224802270C96016841F05F
:102CA00080510160006800F080500C900C980C96E8
:102CB0001C48016841F440410160006800F4404054
:102CC0000C900C9804201C904FF4B4701B971A9031
:102CD00010201990CDE91776159001201490284600
:102CE0001197FFF759F8FEF751FE4FF48050052178
:102CF00010904FF4A0500F900F20CDE90D760C905E
:102D00000CA8FEF77BFF4FF4D87009960697049045
:102D1000082000902046FEF771FE1DB0F0BD00BFF8
:102D2000403802400070004010B50E480F4CD0F8FB
:102D3000801041F47001C0F880100B490A6842F01D
:102D400001020A6000228A600B6823400B60084B76
:102D50004B600B6823F480230B60CA604FF0006166
:102D6000016010BD08ED00E000380240FFFFF6FEF4
:102D700010300024FEE7000010B5074C00F00F03F0
:102D8000044AB0F1FF3F2344C8BF831808011870FC
:102D900010BD00BF00E400E014ED00E02820FFF7C4
:102DA000BDBD2920FFF7BABD4FF4A0707047F020D9
:102DB00070470000B0B5FFF705FD6F4DCA20A8476A
:102DC0006E4CC320A0470820A0475020A047CF202A
:102DD000A8470020A047C120A0473020A047ED20F1
:102DE000A8476420A0470320A0471220A0478120C5
:102DF000A047E820A8478520A0470020A0477820CA
:102E0000A047CB20A8473920A0472C20A04700206E
:102E1000A0473420A0470220A047F720A847202041
:102E2000A047EA20A8470020A0470020A047B120E3
:102E3000A8470020A0471B20A047B620A8470A208B
:102E4000A047A220A047C020A8471020A047C1202B
:102E5000A8471020A047C520A8474520A047152017
:102E6000A047C720A8479020A0473620A847C820E1
:102E7000A047F220A8470020A047B020A847C220C2
:102E8000A047B620A8470A20A047A720A047272090
:102E9000A0470420A0472A20A8470020A0470020E0
:102EA000A0470020A047EF20A0472B20A8470020E4
:102EB000A0470020A0470120A0473F20A047F620C0
:102EC000A8470120A0470020A0470620A0472C20AB
:102ED000A847C820FFF773FC2620A8470120A04779
:102EE000E020A8470F20A0472920A0472420A04782
:102EF0000C20A0470E20A0470920A0474E20A04745
:102F00007820A0473C20A0470920A0471320A047D5
:102F10000520A0471720A0471120A0470020A04768
:102F2000E120A8470020A0471620A0471B20A0476B
:102F30000420A0471120A0470720A0473120A04728
:102F40003320A0474220A0470520A0470C20A047DF
:102F50000A20A0472820A0472F20A0470F20A047E5
:102F60001120A847C820FFF72AFC2920A8472C20B9
:102F70002946BDE8B04008471D290008932F0008E6
:102F800080B5FFF71FFCD3200321FFF781FC80B23F
:102F900080BDFFF7ABBC00009AB0FEF701FBFFF766
:102FA0006DFE002789488A4C0D970168254641F03F
:102FB00020010160016801F020010D910D990D972C
:102FC000016841F004010160016801F004010D9104
:102FD0000D990D97016841F001010160016801F050
:102FE00001010D910D990D97016841F002010160F9
:102FF000016801F002010D910D990D97016841F0F2
:1030000040010160016801F040010D910D990D979B
:10301000016841F010010160016801F010010D919B
:103020000D990D97016841F008010160006800F0FA
:1030300008000D900D980220C4E91770C4E91977B3
:10304000C4E90E706348276445F8340F2846FDF73D
:1030500067FE284601210126FDF714FE5E4D802003
:10306000402110220423C4E9097784E8E000C4E980
:103070000332C4E905100DA92046C4E9077713926D
:10308000CDE91122CDE90F22CDE90D22FEF7F0FFA7
:10309000524C544A52494FF4804027622260C4E99E
:1030A0000117C4E903702046C4E905779246E76139
:1030B000FEF75AF920460021FEF718F920460021B4
:1030C000FEF732F90DF1340934214846FDF7D4F802
:1030D000E84634214046FDF7CFF8434D0AF58630E7
:1030E000F7214FF4AA72F5234FF4A776052485F84B
:1030F0003670AF86C5E90846C5E90A322963C5E9D5
:10310000000728460E2103220723C5E90277C5E9F7
:103110000473C5E90621FEF7B7FA48461C21FDF7FE
:10312000ABF84FF480662846494600221594149661
:10313000CDF863701897CDE91677FEF76BFA404625
:103140001C21FDF799F8284641460122CDE9076484
:10315000CDF82F700B97CDE90977FEF75BFA23487E
:103160004FF482710AF574424FF40073C0E90021F4
:103170000A21C0E90277C0E90477C0E90637C0E94F
:103180000877C0E90A71FFF74CF8FDF79DF90020B8
:103190004FF05041FDF7E0F901204FF05041FDF7AD
:1031A000DBF90120FDF7B4FAFDF722F94FF0FF300B
:1031B000FDF79EF84FF07F40FDF7AEFA0CA200201D
:1031C00000210023FDF71AF9FEE700BF3038024066
:1031D0005000002000B00240400100A01C0300206D
:1031E000A0860100005C004070030020180400204D
:1031F00079657379657379657300000002E008C82A
:10320000121F08C1002AFAD170477047002001E060
:1032100001C1121F002AFBD170470000000000000E
:103220000000010203040607080900000000010273
:103230000304000000000000000000000000000087
:10324000000000000000000000000000000000007E
:10325000000000000000000000000000000000006E
:10326000000000000000000000000000000000005E
:10327000000000000000000000000000000000004E
:1032800003800003800003800003800003800003AC
:103290008000038000038000038000010000010023
:1032A0000000000000000003800003800000000018
:1032B000000000000000000000000000000000000E
:1032C00000000000000000000000000E70000E7002
:1032D000000E7000042000042000042000042000E0
:1032E00000000000000000000000000000000000DE
:1032F00000000000000000000000000000000000CE
:1033000000000000000000000000000000000000BD
:103310000660000660000660000660000660003F70
:10332000F8003FF8000660000CC0003FF8003FF8CE
:10333000000CC0000CC0000CC0000CC0000CC00091
:10334000000000000000000000000000000000007D
:10335000000000000001800001800007B0000FF0B5
:10336000001870001870001C00000F800007E000BB
:1033700000F0001830001C30001C70001FE0001B23
:10338000C000018000018000018000018000000079
:10339000000000000000000000000000000000002D
:1033A0000780000FC0001CE0001860001860001CBF
:1033B000E0000FF80007E0001FF0000738000618D3
:1033C0000006180007380003F00001E000000000CC
:1033D00000000000000000000000000000000000ED
:1033E000000000000000000000000000000003F0EA
:1033F0000007F0000C60000C00000C00000600004C
:103400000700000F9C001DFC0018F0001870000F52
:10341000FC0007DC000000000000000000000000CD
:10342000000000000000000000000000000000009C
:103430000000000380000380000380000100000101
:10344000000001000001000000000000000000007A
:10345000000000000000000000000000000000006C
:10346000000000000000000000000000000000005C
:10347000000000000000000000180000380000708C
:103480000000F00000E00000E00001C00001C0000A
:1034900001C00001C00001C00001C00000E0000048
:1034A000E00000700000700000380000180000000C
:1034B000000000000000000000000000000000000C
:1034C0001800001C00000E00000E0000070000079E
:1034D000000003800003800003800003800003805D
:1034E000000380000700000700000F00000E00002E
:1034F0001C00001800000000000000000000000098
:103500000000000000000000018000018000018038
:10351000001DB8001FF80007E00003C00003C00052
:1035200006600006600000000000000000000000CF
:10353000000000000000000000000000000000008B
:10354000000000000000000000000000000000007B
:1035500000000000000001800001800001800001E7
:1035600080000180003FFC003FFC000180000180E2
:1035700000018000018000018000000000000000C8
:10358000000000000000000000000000000000003B
:10359000000000000000000000000000000000002B
:1035A000000000000000000000000000000000001B
:1035B00000000000000000000000000000E000002B
:1035C000C00001C000018000018000030000030072
:1035D00000000000000000000000000000000000EB
:1035E00000000000000000000000000000000000DB
:1035F00000000000001FF8001FF80000000000009D
:1036000000000000000000000000000000000000BA
:1036100000000000000000000000000000000000AA
:10362000000000000000000000000000000000009A
:10363000000000000000000000000000000000008A
:1036400000000000000000000000000003C00003B4
:10365000C00003C0000000000000000000000000E7
:10366000000000000000000000000018000018002A
:1036700000380000300000700000600000600000B2
:10368000C00000C0000180000180000300000300B2
:10369000000600000600000E00000C00001C0000E8
:1036A00018000018000000000000000000000000EA
:1036B000000000000000000003C00007E0000C3024
:1036C000000C3000181800181800181800181800FE
:1036D0001818001818001818000C30000C300007DB
:1036E000E00003C000000000000000000000000037
:1036F00000000000000000000000000000000000CA
:103700000080000780001F80001D800001800001F4
:1037100080000180000180000180000180000180A4
:10372000000180000180001FF8001FF80000000069
:103730000000000000000000000000000000000089
:10374000000000000000000007C0001FF00038303B
:103750000030180030180000180000300000600031
:1037600001C0000380000600000C00001800003FAC
:10377000F8003FF80000000000000000000000001A
:103780000000000000000000000000000000000039
:1037900003C0000FE0000C7000003000003000009B
:1037A000600003C00003E000007000001800001873
:1037B000000018001838001FF0000FC000000000C3
:1037C00000000000000000000000000000000000F9
:1037D000000000000000000000E00001E00001E047
:1037E000000360000660000660000C60000C6000D2
:1037F0001860003060003FF8003FF80000600003F0
:10380000F80003F8000000000000000000000000C5
:1038100000000000000000000000000000000000A8
:103820001FF0001FF0001800001800001800001B17
:10383000C0001FF0001C3000001800001800001825
:10384000000018003030003FF0000FC00000000002
:103850000000000000000000000000000000000068
:10386000000000000000000000F80003F80007005E
:10387000000E00000C00001800001BC0001FF0002C
:103880001C30001818001818001818000C38000F09
:10389000F00003E000000000000000000000000055
:1038A0000000000000000000000000000000000018
:1038B0001FF8001FF800181800183800003000002A
:1038C000300000700000600000600000E00000C0F8
:1038D0000000C00001C00001800001800000000065
:1038E00000000000000000000000000000000000D8
:1038F000000000000000000007E0000FF0001C388E
:10390000001818001818000C300007E00007E0004D
:103910000C30001818001818001818001C38000F78
:10392000F00007E0000000000000000000000000C0
:103930000000000000000000000000000000000087
:1039400007C0000FF0001C300018180018180018ED
:1039500018000C38000FF80003D8000018000030E1
:103960000000700000E0001FC0001F000000000009
:103970000000000000000000000000000000000047
:103980000000000000000000000000000000000037
:103990000000000003C00003C00003C000000000DE
:1039A00000000000000000000000000003C0000351
:1039B000C00003C000000000000000000000000084
:1039C00000000000000000000000000000000000F7
:1039D00000000000000000000000000000F00000F7
:1039E000F00000F0000000000000000000000000F7
:1039F0000000E00001C00001800001800003000021
:103A000002000000000000000000000000000000B4
:103A10000000000000000000000000000000001C8A
:103A200000003C0000F00003C0000F00003C00005C
:103A3000F000003C00000F000003C00000F0000098
:103A40003C00001C0000000000000000000000001E
:103A50000000000000000000000000000000000066
:103A60000000000000000000000000000000007FD7
:103A7000FC007FFC000000000000007FFC007FFCD9
:103A80000000000000000000000000000000000036
:103A90000000000000000000000000000000000026
:103AA00000000000000000000000000000007000A6
:103AB000007800001E000007800001E00000780090
:103AC000001E0000780001E0000780001E00007862
:103AD0000000700000000000000000000000000076
:103AE00000000000000000000000000000000000D6
:103AF00000000007C0000FE0001870001830001828
:103B0000300000700000E00003C0000380000300EC
:103B10000000000000000007000007000000000097
:103B20000000000000000000000000000000000095
:103B3000000000000000000003E00007F0000E3865
:103B4000000C180018780018F80019D8001998000F
:103B500019980019980018F8001878001800000C3F
:103B600000000E180007F80003E00000000000004D
:103B70000000000000000000000000000000000045
:103B80000000001F80001FC00001C0000360000390
:103B900060000630000630000C30000FF8001FF8FF
:103BA00000180C00300C00FC7F00FC7F00000000BF
:103BB0000000000000000000000000000000000005
:103BC00000000000000000000000007FE0007FF027
:103BD000001838001818001818001838001FF000D6
:103BE0001FF800181C00180C00180C00180C007F9F
:103BF000F8007FF00000000000000000000000005E
:103C000000000000000000000000000000000000B4
:103C100000000003EC000FFC001C1C00180C00301E
:103C20000C00300000300000300000300000300098
:103C300000180C001C1C000FF80003F0000000002E
:103C40000000000000000000000000000000000074
:103C500000000000000000000000007FC0007FF0B6
:103C600000183800181800180C00180C00180C0068
:103C7000180C00180C00180C001818001838007FD9
:103C8000F0007FE0000000000000000000000000E5
:103C90000000000000000000000000000000000024
:103CA0000000007FF8007FF80018180018180019AD
:103CB00098001980001F80001F800019800019984B
:103CC000001818001818007FF8007FF800000000A6
:103CD00000000000000000000000000000000000E4
:103CE00000000000000000000000003FFC003FFC5E
:103CF000000C0C000C0C000CCC000CC0000FC00021
:103D00000FC0000CC0000CC0000C00000C00003FF5
:103D1000C0003FC0000000000000000000000000E4
:103D20000000000000000000000000000000000093
:103D300000000003EC000FFC001C1C00180C0030FD
:103D40000C0030000030000030FE0030FE00300C6F
:103D500000380C001C1C000FFC0003F000000000E9
:103D60000000000000000000000000000000000053
:103D700000000000000000000000007E7E007E7E4B
:103D8000001818001818001818001818001FF8005C
:103D90001FF8001818001818001818001818007ECE
:103DA0007E007E7E00000000000000000000000099
:103DB0000000000000000000000000000000000003
:103DC0000000001FF8001FF80001800001800001C2
:103DD00080000180000180000180000180000180DE
:103DE000000180000180001FF8001FF800000000A3
:103DF00000000000000000000000000000000000C3
:103E0000000000000000000000000007FE0007FEA8
:103E100000003000003000003000003000003000B2
:103E20003030003030003030003030003060003F43
:103E3000E0000F8000000000000000000000000013
:103E40000000000000000000000000000000000072
:103E50000000007F3E007F3E001830001860001810
:103E6000C0001980001B80001FC0001CE0001870FB
:103E7000001830001838007F1F007F1F000000006E
:103E80000000000000000000000000000000000032
:103E900000000000000000000000007F80007F8024
:103EA000000C00000C00000C00000C00000C0000D6
:103EB0000C00000C0C000C0C000C0C000C0C007F17
:103EC000FC007FFC0000000000000000000000007B
:103ED00000000000000000000000000000000000E2
:103EE000000000F00F00F81F00381C003C3C003CB4
:103EF0003C00366C00366C0033CC0033CC00318C87
:103F000000300C00300C00FE7F00FE7F000000003F
:103F100000000000000000000000000000000000A1
:103F2000000000000000000000000078FE0078FEA5
:103F3000001C18001E18001F18001B18001B9800FA
:103F400019D80018D80018F8001878001838007F21
:103F500018007F18000000000000000000000000B2
:103F60000000000000000000000000000000000051
:103F700000000003C0000FF0001C380018180038C3
:103F80001C00300C00300C00300C00300C00381CD1
:103F9000001818001C38000FF00003C000000000DB
:103FA0000000000000000000000000000000000011
:103FB00000000000000000000000003FF0003FF89B
:103FC000000C1C000C0C000C0C000C0C000C18005D
:103FD0000FF8000FE0000C00000C00000C00003F88
:103FE000C0003FC000000000000000000000000012
:103FF00000000000000000000000000000000000C1
:1040000000000003C0000FF0001C38001818003832
:104010001C00300C00300C00300C00300C00381C40
:10402000001818001C38000FF00007C00007CC0073
:104030000FFC000C38000000000000000000000031
:1040400000000000000000000000007FE0007FF0A2
:10405000001838001818001818001838001FF00051
:104060001FC00018E0001870001830001838007FDA
:104070001E007F0E00000000000000000000000095
:104080000000000000000000000000000000000030
:1040900000000007D8000FF8001C3800181800189E
:1040A00018001E00000FC00003F000007800181870
:1040B000001818001C38001FF0001BE00000000072
:1040C00000000000000000000000000000000000F0
:1040D00000000000000000000000003FFC003FFC6A
:1040E00000318C00318C00318C00318C000180005B
:1040F0000180000180000180000180000180000F2C
:10410000F0000FF0000000000000000000000000C0
:10411000000000000000000000000000000000009F
:104120000000007E7E007E7E00181800181800181F
:104130001800181800181800181800181800181877
:10414000001818000C30000FF00003C00000000041
:10415000000000000000000000000000000000005F
:1041600000000000000000000000007F7F007F7F53
:1041700000180C000C18000C18000C180006300079
:1041800006300003600003600003600001C000010E
:10419000C0000080000000000000000000000000DF
:1041A000000000000000000000000000000000000F
:1041B000000000FE3F80FE3F8030060030060030E9
:1041C000860019CC0019CC001B6C001B6C001E7CF7
:1041D000000E38000E38000C18000C18000000000B
:1041E00000000000000000000000000000000000CF
:1041F00000000000000000000000007E7E007E7EC7
:10420000001818000C300006600003C00001800098
:1042100001800003C0000660000C30001818007E0A
:104220007E007E7E00000000000000000000000014
:10423000000000000000000000000000000000007E
:104240000000007C7E007C7E001818000C30000608
:10425000600006600003C000018000018000018052
:10426000000180000180000FF0000FF0000000004E
:10427000000000000000000000000000000000003E
:1042800000000000000000000000001FF8001FF800
:104290000018180018300018600018C000018000D5
:1042A0000300000618000C18001818003018003F12
:1042B000F8003FF8000000000000000000000000CF
:1042C00000000000000000000000000000000000EE
:1042D00001F00001F0000180000180000180000178
:1042E00080000180000180000180000180000180C9
:1042F0000001800001800001800001800001800039
:1043000001F00001F00000000000000000000000CB
:1043100000001800001800001C00000C00000E0037
:1043200000060000060000030000030000018000FA
:1043300001800000C00000C00000600000600000BC
:104340007000003000003800001800001800000065
:10435000000000000000000000000000000000005D
:104360000F80000F800001800001800001800001AB
:104370008000018000018000018000018000018038
:1043800000018000018000018000018000018000A8
:104390000F80000F800000000000000000000000FF
:1043A000000000000000800001C00003E000077072
:1043B000000630000C1800180C001004000000006B
:1043C00000000000000000000000000000000000ED
:1043D00000000000000000000000000000000000DD
:1043E00000000000000000000000000000000000CD
:1043F00000000000000000000000000000000000BD
:1044000000000000000000000000000000000000AC
:10441000000000000000000000000000000000009C
:10442000000000000000000000000000FFFF00FF8F
:10443000FF0000000003000003800000E0000060B7
:10444000000000000000000000000000000000006C
:10445000000000000000000000000000000000005C
:10446000000000000000000000000000000000004C
:10447000000000000000000000000000000000003C
:104480000000000000000000000000000FC0001F3E
:10449000E00000300000300007F0001FF00038306E
:1044A000003030003070001FFC000FBC0000000026
:1044B00000000000000000000000000000000000FC
:1044C00000000000000000007800007800001800E4
:1044D000001800001BE0001FF8001C1800180C005A
:1044E000180C00180C00180C00180C001C18007F89
:1044F000F8007BE000000000000000000000000069
:1045000000000000000000000000000000000000AB
:1045100000000000000000000000000003EC000F9D
:10452000FC001C1C00380C00300C00300000300077
:1045300000380C001C1C000FF80003F00000000005
:10454000000000000000000000000000000000006B
:104550000000000000000000007800007800001853
:104560000000180007D8001FF800183800301800A5
:104570003018003018003018003018001838001FAC
:10458000FE0007DE00000000000000000000000048
:10459000000000000000000000000000000000001B
:1045A00000000000000000000000000007E0001F05
:1045B000F800181800300C003FFC003FFC003000F1
:1045C00000300000180C001FFC0007F00000000085
:1045D00000000000000000000000000000000000DB
:1045E000000000000000000001FC0003FC000600C9
:1045F000000600003FF8003FF8000600000600003B
:104600000600000600000600000600000600003F4D
:10461000F0003FF00000000000000000000000007B
:10462000000000000000000000000000000000008A
:1046300000000000000000000000000007DE001F76
:10464000FE001838003018003018003018003018FC
:10465000003018001838001FF80007D800001800B4
:104660000018000038000FF0000FC000000000002C
:104670000000000000000000780000780000180032
:10468000001800001BE0001FF0001C380018180084
:104690001818001818001818001818001818007EAC
:1046A0007E007E7E00000000000000000000000090
:1046B00000000000000000000000000000000000FA
:1046C0000180000180000000000000001F80001F2A
:1046D00080000180000180000180000180000180D5
:1046E000000180000180003FFC003FFC0000000052
:1046F00000000000000000000000000000000000BA
:10470000000000000000000000C00000C000000029
:10471000000000001FF0001FF0000030000030001B
:104720000030000030000030000030000030000099
:1047300030000030000030000030000070001FE04A
:10474000001F8000000000000000000000000000CA
:104750003C00003C00000C00000C00000CF8000CB9
:10476000F8000CC0000D80000F80000F00000F80CB
:10477000000DC0000CE0003C7C003C7C0000000010
:104780000000000000000000000000000000000029
:1047900000000000000000001F80001F800001805A
:1047A0000001800001800001800001800001800084
:1047B0000180000180000180000180000180003F35
:1047C000FC003FFC000000000000000000000000B2
:1047D00000000000000000000000000000000000D9
:1047E000000000000000000000000000F77800FF5B
:1047F000FC0039CC00318C00318C00318C00318CC4
:1048000000318C00318C00FDEF00FDEF0000000056
:104810000000000000000000000000000000000098
:104820000000000000000000000000000000000088
:10483000000000007BE0007FF0001C38001818002A
:104840001818001818001818001818001818007EFA
:104850007E007E7E000000000000000000000000DE
:104860000000000000000000000000000000000048
:1048700000000000000000000000000003C0000F66
:10488000F0001C3800381C00300C00300C00300CDC
:1048900000381C001C38000FF00003C000000000AE
:1048A0000000000000000000000000000000000008
:1048B00000000000000000000000000000000000F8
:1048C000000000007BE0007FF8001C1800180C00BE
:1048D000180C00180C00180C00180C001C18001FF5
:1048E000F8001BE0001800001800001800007F000E
:1048F000007F000000000000000000000000000039
:1049000000000000000000000000000007DE001FA3
:10491000FE00183800301800301800301800301829
:10492000003018001838001FF80007D800001800E1
:1049300000180000180000FE0000FE00000000004B
:104940000000000000000000000000000000000067
:10495000000000003E78003EFC0007CC000700008D
:104960000600000600000600000600000600003FEA
:10497000F0003FF000000000000000000000000018
:104980000000000000000000000000000000000027
:1049900000000000000000000000000007F8000F09
:1049A000F8001818001818001F80000FF00000F819
:1049B000001818001838001FF0001FE00000000069
:1049C00000000000000000000000000000000000E7
:1049D00000000000000000000C00000C00000C00B3
:1049E000000C00003FF0003FF0000C00000C000045
:1049F0000C00000C00000C00000C00000C1C000758
:104A0000FC0003F0000000000000000000000000B7
:104A10000000000000000000000000000000000096
:104A2000000000000000000000000000787800781E
:104A3000780018180018180018180018180018180E
:104A4000001818001838000FFE0007DE00000000F4
:104A50000000000000000000000000000000000056
:104A60000000000000000000000000000000000046
:104A7000000000007C3E007C3E0018180018180062
:104A80000C30000C300006600006600007E00003F8
:104A9000C00003C000000000000000000000000093
:104AA0000000000000000000000000000000000006
:104AB000000000000000000000000000783C0078CA
:104AC0003C003118003398003398001AB0001EF0F3
:104AD000001EF0001C60000C60000C600000000074
:104AE00000000000000000000000000000000000C6
:104AF00000000000000000000000000000000000B6
:104B0000000000003E7C003E7C000C30000660008F
:104B100003C00001800003C0000660000C30003EAE
:104B20007C003E7C0000000000000000000000004F
:104B30000000000000000000000000000000000075
:104B40000000000000000000000000007E1F007E4A
:104B50001F00180C000C18000C180006300006305E
:104B60000003600003E00001C00000C000018000FD
:104B70000180000300003FC0003FC00000000000B3
:104B80000000000000000000000000000000000025
:104B9000000000001FF8001FF80018300018600027
:104BA00000C0000180000300000618000C18001F60
:104BB000F8001FF8000000000000000000000000E6
:104BC00000000000000000000000000000000000E5
:104BD00000E00001E0000180000180000180000190
:104BE0008000018000018000038000070000038036
:104BF0000001800001800001800001800001800030
:104C000001E00000E00000000000000000000000E3
:104C10000000000000000000018000018000018011
:104C200000018000018000018000018000018000FF
:104C300001800001800001800001800001800001EE
:104C400080000180000180000180000180000000E0
:104C50000000000000000000000000000000000054
:104C60000700000780000180000180000180000132
:104C7000800001800001800001C00000E00001C050
:104C8000000180000180000180000180000180009F
:104C90000780000700000000000000000000000086
:104CA0000000000000000000000000000000000004
:104CB000000000000000000000000E00001F1800AF
:104CC0003BB80031F00000E00000000000000000F0
:104CD00000000000000000000000000000000000D4
:104CE00000000000000000000000000004000000C0
:104CF00003000000020000000200000002000000AB
:104D0000010000000100000002000000304D00081A
:104D10000000002050000000FC310008804D000819
:104D200050000020280800000C320008000000009D
:104D300001000000100000003232000811001800CD
:104D4000001000000024F400B52D0008812F000899
:104D5000A32D00089D2D00080000000000000000A9
:104D60000000000000000000000000000000000043
:104D7000AF2D0008A92D0008000000000000000071
:04000005080001AD41
:00000001FF
