:020000040800F2
:1000000000000320E12E0008312E00083D2E0008DC
:10001000432E0008492E00084F2E00080000000063
:10002000000000000000000000000000552E000845
:10003000612E0008000000006D2E0008792E0008D7
:10004000312F0008312F0008312F0008312F000810
:10005000312F0008312F0008312F0008312F000800
:10006000312F0008312F0008312F0008312F0008F0
:10007000312F0008312F0008312F0008312F0008E0
:10008000312F0008312F0008312F0008312F0008D0
:10009000312F0008312F0008312F0008312F0008C0
:1000A000312F0008312F0008312F0008312F0008B0
:1000B000312F0008312F0008312F0008312F0008A0
:1000C000312F0008312F0008312F0008312F000890
:1000D000312F0008312F0008312F0008312F000880
:1000E000312F0008312F0008312F0008312F000870
:1000F000312F0008312F0008312F0008312F000860
:10010000312F0008312F0008312F0008312F00084F
:10011000312F0008312F0008312F0008312F00083F
:10012000312F0008312F0008312F0008312F00082F
:10013000312F0008312F0008312F0008312F00081F
:10014000312F0008312F0008312F0008312F00080F
:10015000312F0008312F0008312F0008312F0008FF
:10016000312F0008312F0008312F0008312F0008EF
:10017000312F0008312F0008312F00080000000047
:10018000312F0008312F0008312F0008312F0008CF
:10019000312F0008312F0008312F0008312F0008BF
:0C01A000312F0008312F0008312F00081B
:1001AC0010B5054C237833B9044B13B10448AFF3A5
:1001BC0000800123237010BD0C0000200000000003
:1001CC008C2F000808B5034B1BB103490348AFF350
:1001DC00008008BD00000000100000208C2F0008DB
:1001EC0053B94AB9002908BF00281CBF4FF0FF3192
:1001FC004FF0FF3000F074B9ADF1080C6DE904CE8E
:10020C0000F006F8DDF804E0DDE9022304B07047E5
:10021C002DE9F047089E04468846002B40F0858067
:10022C008A42154648D9B2FA82F24AB1C2F1200785
:10023C0001FA02F320FA07F7954047EA03089440C5
:10024C004FEA154E230CB8FBFEF71FFA85FC0EFB8C
:10025C00178843EA084307FB0CF1994209D9EB18BC
:10026C0007F1FF3080F0E380994240F2E080023FDA
:10027C002B445B1AA4B2B3FBFEF00EFB103344EA22
:10028C00034400FB0CFCA44509D92C1900F1FF33E5
:10029C0080F0CB80A44540F2C88002382C4440EA60
:1002AC000740A4EB0C0400271EB1D4400023C6E980
:1002BC0000433946BDE8F087002A53D0B2FA82F2E7
:1002CC00002A40F0B680491B4FEA154E1FFA85F8FC
:1002DC000127B1FBFEFC230C0EFB1C1143EA01436E
:1002EC0008FB0CF1994207D9EB180CF1FF3002D244
:1002FC00994200F2EC808446591AA3B2B1FBFEF08D
:10030C000EFB101443EA044408FB00F8A04507D97F
:10031C002C1900F1FF3302D2A04500F2DC80184604
:10032C00A4EB080440EA0C40BEE78B4208D9002E2F
:10033C0078D00027C6E9000138463946BDE8F08779
:10034C00B3FA83F77FB98B4202D3824200F2BD80AD
:10035C00841A61EB030301209846002EA9D0C6E94C
:10036C000048A6E7FFDEC7F12005BB4022FA05FCDA
:10037C004CEA030C01FA07F420FA05F821FA05F30C
:10038C004FEA1C4E48EA0404B3FBFEF9210C0EFBA9
:10039C0019331FFA8CF841EA034309FB08FA9A4512
:1003AC0002FA07F200FA07F10BD91CEB030309F16F
:1003BC00FF3080F088809A4540F28580A9F10209CF
:1003CC006344A3EB0A03A4B2B3FBFEF00EFB1033A1
:1003DC0044EA034400FB08F8A04508D91CEB0404CC
:1003EC0000F1FF336BD2A04569D90238644440EA6E
:1003FC000940A4EB0804A0FB02894C45C6464B46B9
:10040C0054D351D0002E69D0B1EB0E0264EB03042F
:10041C0004FA05F522FA07F3FC401D43C6E9005423
:10042C00002746E73746304643E7184637E7074686
:10043C001FE7C2F1200320FA03F7954001FA02F0FE
:10044C0021FA03F34FEA154E3843010CB3FBFEF7C8
:10045C001FFA85F80EFB173341EA034107FB08F33B
:10046C008B4204FA02F407D9691807F1FF3C28D231
:10047C008B4226D9023F2944CB1A81B2B3FBFEF042
:10048C000EFB103341EA034100FB08F38B4207D902
:10049C00691800F1FF3C10D28B420ED90238294466
:1004AC00C91A40EA074714E74145ABD2B8EB020E34
:1004BC0069EB0C0201381346A4E76046F0E71846D6
:1004CC0095E76746D8E781467BE7384645E7ACF1C8
:1004DC00020C2B4410E702382C4421E73746E8E69F
:1004EC00704700BF80B500AF0E4B1B680D4A43F43C
:1004FC00007313600B4B1B680A4A43F48063136050
:10050C00084B1B68074A43F480731360032000F008
:10051C0007F9002000F008F802F0E2F90023184671
:10052C0080BD00BF003C024080B582B000AF786057
:10053C00124B1A68124B1B7819464FF47A73B3FBA3
:10054C00F1F3B2FBF3F3184600F011F90346002B5C
:10055C0001D001230EE07B680F2B0AD800227968AA
:10056C004FF0FF3000F0E7F8064A7B681360002379
:10057C0000E0012318460837BD4680BD0800002066
:10058C00040000200000002080B400AF054B1B7855
:10059C001A46054B1B681344034A136000BFBD4643
:1005AC0080BC7047040000202800002080B400AFFD
:1005BC00024B1B681846BD4680BC704728000020C3
:1005CC0080B485B000AF78607B6803F00703FB60F4
:1005DC000C4BDB68BB60BA684FF6FF031340BB6083
:1005EC00FB681A02BB68134343F0BF6343F4003348
:1005FC00BB60044ABB68D36000BF1437BD4680BCE7
:10060C00704700BF00ED00E080B400AF044BDB6826
:10061C001B0A03F007031846BD4680BC704700BF99
:10062C0000ED00E080B483B000AF03463960FB718D
:10063C0097F90730002B0ADB3B68DAB20C4997F9C3
:10064C0007301201D2B20B4483F800230AE03B6856
:10065C00DAB20849FB7903F00F03043B1201D2B262
:10066C000B441A7600BF0C37BD4680BC704700BFE8
:10067C0000E100E000ED00E080B489B000AFF8606C
:10068C00B9607A60FB6803F00703FB61FB69C3F197
:10069C000703042B28BF0423BB61FB690433062B1F
:1006AC0002D9FB69033B00E000237B614FF0FF3272
:1006BC00BB6902FA03F3DA43BB681A407B699A40C0
:1006CC004FF0FF317B6901FA03F3D9437B680B4090
:1006DC00134318462437BD4680BC704780B582B0A2
:1006EC0000AF78607B68013BB3F1807F01D30123BD
:1006FC000FE00A4A7B68013B53600F214FF0FF303B
:10070C00FFF790FF054B00229A60044B07221A60FA
:10071C00002318460837BD4680BD00BF10E000E03E
:10072C0080B582B000AF78607868FFF749FF00BFF2
:10073C000837BD4680BD80B586B000AF0346B960B2
:10074C007A60FB7300237B61FFF75EFF78617A6848
:10075C00B9687869FFF790FF024697F90F30114698
:10076C001846FFF75FFF00BF1837BD4680BD80B548
:10077C0082B000AF78607868FFF7B0FF0346184688
:10078C000837BD4680BD80B582B000AF78607B680D
:10079C00002B01D101233BE07B6893F83930DBB2AD
:1007AC00002B06D17B68002283F83820786802F091
:1007BC00BDF87B68022283F839207B681B681B68B4
:1007CC0023F440317B685A687B681B680A431A60C3
:1007DC007B681B685B6B23F007017B689A687B68FE
:1007EC001B680A435A637B681B681B6C23F47F539A
:1007FC0023F03F037A68D1687A6812680B4313645C
:10080C007B680022DA637B68012283F8392000239D
:10081C0018460837BD4680BD80B487B000AF7860FD
:10082C0039607B685B68B3F5403F7B6893F8383080
:10083C00012B01D1022379E07B68012283F8382057
:10084C007B68022283F839203B681B0118337A68D5
:10085C0013443B613B695A683B699B681B04134317
:10086C007B61354BFB603B695B680A2B03D03B69B2
:10087C005B68092B07D13B69DB6803F07F437A691E
:10088C0013437B6105E03B69DB681B067A69134304
:10089C007B613B68002B20D17B681B685A6AFB6824
:1008AC00DB4302EA03017B681B687A690A435A62DC
:1008BC007B681B683A6912689A613B695B680A2B12
:1008CC0003D03B695B68092B27D13B69DA687B68ED
:1008DC001B6822F07F429A621FE07B681B68DA6912
:1008EC00FB68DB4302EA03017B681B687A690A43F5
:1008FC00DA617B681B683A6912681A613B695B684C
:10090C000A2B03D03B695B68092B06D13B69DA687B
:10091C007B681B6822F07F421A627B68012283F895
:10092C0039207B68002283F83820002318461C37B6
:10093C00BD4680BC704700BF0F0003FF80B489B078
:10094C0000AF7860396000237B6100233B6100239A
:10095C00BB610023FB6177E10122FB6902FA03F31F
:10096C007B613B681B687A6913403B613A697B6920
:10097C009A4240F066813B685B68022B03D03B686F
:10098C005B68122B23D1FB69DA087B68083253F8B9
:10099C002230BB61FB6903F007039B000F2202FAB4
:1009AC0003F3DB43BA691340BB613B681A69FB690B
:1009BC0003F007039B0002FA03F3BA691343BB610C
:1009CC00FB69DA087B680832B96943F822107B6846
:1009DC001B68BB61FB695B00032202FA03F3DB4378
:1009EC00BA691340BB613B685B6803F00302FB69A7
:1009FC005B0002FA03F3BA691343BB617B68BA6903
:100A0C001A603B685B68012B0BD03B685B68022B60
:100A1C0007D03B685B68112B03D03B685B68122BDB
:100A2C0030D17B689B68BB61FB695B00032202FAD7
:100A3C0003F3DB43BA691340BB613B68DA68FB69BB
:100A4C005B0002FA03F3BA691343BB617B68BA69B2
:100A5C009A607B685B68BB610122FB6902FA03F355
:100A6C00DB43BA691340BB613B685B681B0903F04D
:100A7C000102FB6902FA03F3BA691343BB617B6899
:100A8C00BA695A607B68DB68BB61FB695B00032257
:100A9C0002FA03F3DB43BA691340BB613B689A6803
:100AAC00FB695B0002FA03F3BA691343BB617B6811
:100ABC00BA69DA603B685B6803F08053002B00F086
:100ACC00C0800023FB60654B5B6C644A43F480433D
:100ADC005364624B5B6C03F48043FB60FB68604ABD
:100AEC00FB699B08023352F82330BB61FB6903F0AE
:100AFC0003039B000F2202FA03F3DB43BA69134092
:100B0C00BB617B68574A934237D07B68564A934205
:100B1C0031D07B68554A93422BD07B68544A934220
:100B2C0025D07B68534A93421FD07B68524A93422C
:100B3C0019D07B68514A934213D07B68504A934238
:100B4C000DD07B684F4A934207D07B684E4A934244
:100B5C0001D1092312E00A2310E008230EE0072339
:100B6C000CE006230AE0052308E0042306E0032337
:100B7C0004E0022302E0012300E00023FA6902F002
:100B8C00030292009340BA691343BB613449FB6979
:100B9C009B080233BA6941F823203C4B1B68BB61AC
:100BAC003B69DB43BA691340BB613B685B6803F488
:100BBC008033002B03D0BA693B691343BB61334AC2
:100BCC00BB691360314B5B68BB613B69DB43BA6942
:100BDC001340BB613B685B6803F40033002B03D00C
:100BEC00BA693B691343BB61284ABB695360274B05
:100BFC009B68BB613B69DB43BA691340BB613B68D3
:100C0C005B6803F48013002B03D0BA693B69134370
:100C1C00BB611E4ABB6993601C4BDB68BB613B69C3
:100C2C00DB43BA691340BB613B685B6803F4001398
:100C3C00002B03D0BA693B691343BB61134ABB69F0
:100C4C00D360FB690133FB61FB690F2B7FF684AE2C
:100C5C0000BF2437BD4680BC704700BF003802403F
:100C6C00003801400000024000040240000802402D
:100C7C00000C024000100240001402400018024018
:100C8C00001C02400020024000240240003C0140B5
:100C9C0080B584B000AF78607B68002B01D1012354
:100CAC001BE17B6893F83D30DBB2002B06D17B68EF
:100CBC00002283F83C20786801F058FE7B682422DF
:100CCC0083F83D207B681B681A687B681B6822F0E0
:100CDC0001021A6001F00EF8F8607B685B68814ACB
:100CEC00934207D8FB68804A934294BF01230023A8
:100CFC00DBB206E0FB687D4A934294BF01230023DC
:100D0C00DBB2002B01D00123E7E0FB68784AA2FBA1
:100D1C0003239B0CBB607B681B685B6823F03F0163
:100D2C007B681B68BA680A435A607B681B681B6A3D
:100D3C0023F03F017B685B686A4A934202D8BB6828
:100D4C00013309E0BB684FF4967202FB03F3694A66
:100D5C00A2FB03239B0901337A6812680B431362CD
:100D6C007B681B68DB6923F44F4222F0FF027B682F
:100D7C005B685C498B4219D8FB68591E7B685B68C1
:100D8C005B00B1FBF3F3591C40F6FC730B40002BDA
:100D9C000AD0FB68591E7B685B685B00B1FBF3F300
:100DAC000133C3F30B0351E004234FE07B689B68D2
:100DBC00002B11D1FB68581E7B6859680B465B00F1
:100DCC000B44B0FBF3F30133C3F30B03002B0CBF49
:100DDC0001230023DBB212E0FB68581E7B685968C4
:100DEC000B469B000B4499000B44B0FBF3F301330F
:100DFC00C3F30B03002B0CBF01230023DBB2002B2E
:100E0C0001D0012322E07B689B68002B0ED1FB688C
:100E1C00581E7B6859680B465B000B44B0FBF3F320
:100E2C000133C3F30B0343F400430FE0FB68581E7C
:100E3C007B6859680B469B000B4499000B44B0FB34
:100E4C00F3F30133C3F30B0343F4404379680968AC
:100E5C001343CB617B681B681B6823F0C0017B6864
:100E6C00DA697B681B6A1A437B681B680A431A6041
:100E7C007B681B689B6823F4034323F0FF037A68A9
:100E8C0011697A68D26811437A6812680B439360CF
:100E9C007B681B68DB6823F0FF017B685A697B6801
:100EAC009B691A437B681B680A43DA607B681B6882
:100EBC001A687B681B6842F001021A607B6800228A
:100ECC001A647B68202283F83D207B6800221A6319
:100EDC007B68002283F83E20002318461037BD465D
:100EEC0080BD00BFA08601007F841E00FF083D006E
:100EFC0083DE1B43D34D621080B483B000AF7860A7
:100F0C0039607B6893F83D30DBB2202B29D17B68AC
:100F1C00242283F83D207B681B681A687B681B6859
:100F2C0022F001021A607B681B685A6A7B681B6896
:100F3C0022F010025A627B681B68596A7B681B6836
:100F4C003A680A435A627B681B681A687B681B689C
:100F5C0042F001021A607B68202283F83D200023B6
:100F6C0000E0022318460C37BD4680BC704780B4A5
:100F7C0085B000AF786039600023FB817B6893F803
:100F8C003D30DBB2202B2AD17B68242283F83D2014
:100F9C007B681B681A687B681B6822F001021A6068
:100FAC007B681B685B6AFB81FB8923F00F03FB8169
:100FBC003B689AB2FB891343FB817B681B68FA89F7
:100FCC005A627B681B681A687B681B6842F00102D6
:100FDC001A607B68202283F83D20002300E0022366
:100FEC0018461437BD4680BC7047000080B584B0ED
:100FFC0000AF78607B68002B01D10123BFE07B68D8
:10100C0093F8A130DBB2002B06D17B68002283F869
:10101C00A020786801F014FD7B68022283F8A120DF
:10102C007B681B689A697B681B6822F070429A6126
:10103C007B681B6899697B685A687B689B681A4354
:10104C007B68DB681A437B681B691A437B681B68E7
:10105C000A439A617B681B6899687B681A684A4BDB
:10106C000B4093607B685B691B04FB607B681B68AF
:10107C0099687B689A69FB681A437B681B680A430A
:10108C009A607B681B68D9687B681A683E4B0B407A
:10109C00D3607B68DB691B04FB607B681B68D968C9
:1010AC007B681A6AFB681A437B681B680A43DA6020
:1010BC007B681B6819697B681A68334B0B4013619A
:1010CC007B685B6A1B04FB607B681B6819697B6827
:1010DC009A6AFB681A437B681B680A431A617B682F
:1010EC001B6859697B681A68274B0B4053617B68F6
:1010FC00DB6A1B04FB607B681B6859697B681A6B95
:10110C00FB681A437B681B680A435A617B6893F837
:10111C0035301B02FB607B6893F836301B04BB60D8
:10112C007B681B68DA6A7B681B6802F07F42DA62B4
:10113C007B681B68D96ABA68FB6813437A6892F8B3
:10114C0034201A437B681B680A43DA627B681B688D
:10115C005A6B7B681B6842F006025A637B681B68FB
:10116C009A697B681B6842F001029A617B680022D5
:10117C00C3F8A4207B68012283F8A1200023184621
:10118C001037BD4680BD00BF00F800F0B0B584B08C
:10119C0000AFF860B9607A60FB6893F8A030012B5F
:1011AC0001D102232CE0FB68012283F8A020FB680C
:1011BC00022283F8A120FA687B68342101FB03F337
:1011CC00134403F13802BB6814461D460FCD0FC4FF
:1011DC000FCD0FC40FCD0FC42B6823607A68B9688C
:1011EC00F86800F011F8FB681B6801225A62FB6872
:1011FC00012283F8A120FB68002283F8A0200023A1
:10120C0018461037BD46B0BD80B489B000AFF86049
:10121C00B9607A60BB685A68FB681B68DB681B0C9A
:10122C00C3F30B0313441B04FB61FB681B681A46D6
:10123C007B68DB01134484335B68FA6812681146DF
:10124C007A68D2010A44843203F470435360BB6859
:10125C001A68FB681B68DB681B0CC3F30B03134495
:10126C005A1CFB681B6819467B68DB010B448433F2
:10127C001946FB6913434B60BB68DA68FB681B6853
:10128C00DB68C3F30A0313441B04FB61FB681B6894
:10129C001A467B68DB01134484339B68FA68126836
:1012AC0011467A68D2010A44843203F47043936085
:1012BC00BB689A68FB681B68DB68C3F30A031344BA
:1012CC005A1CFB681B6819467B68DB010B44843392
:1012DC001946FB6913438B60FB681B681A467B68D5
:1012EC00DB01134484331B69FA68126811467A686F
:1012FC00D2010A44843223F007031361FB681B6894
:10130C001A467B68DB01134484331A46BB681B699D
:10131C001361BB6893F831301B02FB61BB6893F817
:10132C0032301B04BB61BB689B691B067B61FB688D
:10133C001B681A467B68DB01134484339B69FB688A
:10134C001B681A467B68DB01134484331A4600235E
:10135C009361BB6893F830301A46FB691A43BB693A
:10136C001A43FB681B6819467B68DB010B4484330A
:10137C0019467B6913438B61FB681B681A467B68B3
:10138C00DB01134484335B69FA68126811467A688E
:10139C00D2010A44843223F0FF035361FB681B68BB
:1013AC001A467B68DB01134484331A46BB685B69BD
:1013BC005361FB681B681A467B68DB01134484335A
:1013CC00DB69FA68126811467A68D2010A448432E1
:1013DC0023F4E06323F00703D361BB68DA69BB68CD
:1013EC001B6AF968096808467968C90101448431A7
:1013FC001343CB61FB681B681A467B68DB01134403
:10140C0084339B6AFB681B681A467B68DB011344B8
:10141C0084331A4600239362FB681B681A467B6868
:10142C00DB01134484331A46BB685B6A9362BB6866
:10143C001B69002B02D10423FB611BE0BB681B69F9
:10144C00012B02D10323FB6114E0BB681B69042B45
:10145C000BD0BB681B69022B07D0BB681B69032B25
:10146C0003D0BB681B69072B02D10223FB6101E08F
:10147C000123FB61FB681B681A467B68DB01134484
:10148C008433DB6AFA68126811467A68D2010A441E
:10149C00843203F0E023D362BB689B6AFA6902FBD7
:1014AC0003F31A04BB685968BB681B68CB1AF9694B
:1014BC0001FB03F30333F968096808467968C9012D
:1014CC00014484311343CB62FB681B681A467B686A
:1014DC00DB01134484331B6BFA68126811467A687B
:1014EC00D2010A44843223F4FF6323F0070313630D
:1014FC00FB681B681A467B68DB01134484331A466D
:10150C00BB68DB6A1363FB681B681A467B68DB01EC
:10151C00134484331B68FA68126811467A68D20146
:10152C000A44843243F00103136000BF2437BD46E4
:10153C0080BC704780B586B000AF78607B68002BAC
:10154C0001D101232DE27B681B6803F00103002B02
:10155C0075D0A34B9B6803F00C03042B0CD0A04B51
:10156C009B6803F00C03082B12D19D4B5B6803F4B2
:10157C008003B3F5800F0BD1994B1B6803F4003338
:10158C00002B5BD07B685B68002B57D1012308E2F2
:10159C007B685B68B3F5803F06D1914B1B68904A22
:1015AC0043F4803313601DE07B685B68B3F5A02FB8
:1015BC000CD18B4B1B688A4A43F480231360884BF5
:1015CC001B68874A43F4803313600BE0844B1B6821
:1015DC00834A23F480331360814B1B68804A23F4C5
:1015EC00802313607B685B68002B13D0FEF7DEFF53
:1015FC00386108E0FEF7DAFF02463B69D31A642B28
:10160C0001D90323CDE1764B1B6803F40033002B87
:10161C00F0D014E0FEF7CAFF386108E0FEF7C6FF11
:10162C0002463B69D31A642B01D90323B9E16C4BF5
:10163C001B6803F40033002BF0D100E000BF7B6883
:10164C001B6803F00203002B63D0654B9B6803F00F
:10165C000C03002B0BD0624B9B6803F00C03082B84
:10166C001CD15F4B5B6803F48003002B16D15C4BE1
:10167C001B6803F00203002B05D07B68DB68012B91
:10168C0001D001238DE1564B1B6823F0F8027B68D7
:10169C001B69DB00524913430B603AE07B68DB6843
:1016AC00002B20D04F4B01221A60FEF77FFF3861D0
:1016BC0008E0FEF77BFF02463B69D31A022B01D9E7
:1016CC0003236EE1464B1B6803F00203002BF0D0A2
:1016DC00434B1B6823F0F8027B681B69DB00404915
:1016EC0013430B6015E03F4B00221A60FEF75EFFC0
:1016FC00386108E0FEF75AFF02463B69D31A022B09
:10170C0001D903234DE1364B1B6803F00203002B78
:10171C00F0D17B681B6803F00803002B30D07B688A
:10172C005B69002B16D0304B01221A60FEF73EFF8E
:10173C00386108E0FEF73AFF02463B69D31A022BE8
:10174C0001D903232DE1264B5B6F03F00203002B21
:10175C00F0D015E0244B00221A60FEF727FF386109
:10176C0008E0FEF723FF02463B69D31A022B01D98E
:10177C00032316E11A4B5B6F03F00203002BF0D12D
:10178C007B681B6803F00403002B00F0A08000238F
:10179C00FB75134B1B6C03F08053002B0FD10023F4
:1017AC00FB600F4B1B6C0E4A43F0805313640C4BC5
:1017BC001B6C03F08053FB60FB680123FB750B4B28
:1017CC001B6803F48073002B21D1084B1B68074A5C
:1017DC0043F480731360FEF7E9FE386111E000BF3B
:1017EC000038024000004742800E47420070004023
:1017FC00FEF7DCFE02463B69D31A022B01D9032308
:10180C00CFE06A4B1B6803F48073002BF0D07B682D
:10181C009B68012B06D1664B1B6F654A43F0010395
:10182C0013671CE07B689B68052B0CD1604B1B6F0E
:10183C005F4A43F0040313675D4B1B6F5C4A43F034
:10184C00010313670BE05A4B1B6F594A23F001033A
:10185C001367574B1B6F564A23F0040313677B68BF
:10186C009B68002B15D0FEF7A1FE38610AE0FEF74D
:10187C009DFE02463B69D31A41F28832934201D94C
:10188C0003238EE04A4B1B6F03F00203002BEED0B8
:10189C0014E0FEF78BFE38610AE0FEF787FE024685
:1018AC003B69D31A41F28832934201D9032378E081
:1018BC003F4B1B6F03F00203002BEED1FB7D012B82
:1018CC0005D13B4B1B6C3A4A23F0805313647B6865
:1018DC009B69002B64D0364B9B6803F00C03082BE0
:1018EC005CD07B689B69022B41D1324B00221A6081
:1018FC00FEF75CFE386108E0FEF758FE02463B69D5
:10190C00D31A022B01D903234BE0294B1B6803F09C
:10191C000073002BF0D17B68DA697B681B6A1A4371
:10192C007B685B6A9B011A437B689B6A5B08013B83
:10193C001B041A437B68DB6A1B061D4913434B606F
:10194C001C4B01221A60FEF731FE386108E0FEF7ED
:10195C002DFE02463B69D31A022B01D9032320E04A
:10196C00134B1B6803F00073002BF0D018E0114BE5
:10197C0000221A60FEF71AFE386108E0FEF716FE28
:10198C0002463B69D31A022B01D9032309E0084B09
:10199C001B6803F00073002BF0D101E0012300E081
:1019AC00002318461837BD4680BD00BF00700040AC
:1019BC00003802406000474280B584B000AF7860C8
:1019CC0039607B68002B01D10123CAE0674B1B688F
:1019DC0003F00F033A689A420CD9644B3A68D2B2BE
:1019EC001A70624B1B6803F00F033A689A4201D0DD
:1019FC000123B6E07B681B6803F00203002B20D0A8
:101A0C007B681B6803F00403002B05D0584B9B68C4
:101A1C00574A43F4E05393607B681B6803F0080358
:101A2C00002B05D0524B9B68514A43F460439360A2
:101A3C004F4B9B6823F0F0027B689B684C49134327
:101A4C008B607B681B6803F00103002B44D07B6820
:101A5C005B68012B07D1464B1B6803F40033002B4A
:101A6C0019D101237DE07B685B68022B03D07B6876
:101A7C005B68032B07D13E4B1B6803F00073002BF4
:101A8C0009D101236DE03A4B1B6803F00203002BD4
:101A9C0001D1012365E0364B9B6823F003027B6880
:101AAC005B68334913438B60FEF780FDF8600AE0F6
:101ABC00FEF77CFD0246FB68D31A41F28832934252
:101ACC0001D903234DE02A4B9B6803F00C027B6881
:101ADC005B689B009A42EBD1244B1B6803F00F030D
:101AEC003A689A420CD2214B3A68D2B21A701F4B08
:101AFC001B6803F00F033A689A4201D0012330E0CF
:101B0C007B681B6803F00403002B08D0184B9B6800
:101B1C0023F4E0527B68DB68154913438B607B68C8
:101B2C001B6803F00803002B09D0114B9B6823F4AE
:101B3C0060427B681B69DB000D4913438B6000F02E
:101B4C001DF801460A4B9B681B0903F00F03094A59
:101B5C00D35C21FA03F3084A13600020FEF7E4FC7F
:101B6C00002318461037BD4680BD00BF003C024024
:101B7C0000380240A42F000808000020F0B585B002
:101B8C0000AF00227A600022FA6000223A60002244
:101B9C00BA60504A926802F00C02042A07D0082A54
:101BAC0008D0002A40F08E804B4BBB608DE04B4B35
:101BBC00BB608AE0474A526802F03F027A60454AAD
:101BCC00526802F48002002A24D0424A52689209D8
:101BDC0011464FF0000240F2FF154FF0000601EAEB
:101BEC00050302EA06043D4A02FB04F1002202FB53
:101BFC0003F20A443949A3FB0101531819467B68C7
:101C0C004FF000041A462346FEF7EAFA03460C4648
:101C1C00FB6049E02F4B5B689B094FF0000440F2DE
:101C2C00FF114FF0000203EA010504EA02062946FF
:101C3C0032464FF000034FF00004540144EAD164E3
:101C4C004B0119462246491B62EB06024FF000037A
:101C5C004FF00004940144EA91648B015B1A64EB2D
:101C6C0002044FF000014FF00002E20042EA53720E
:101C7C00D9000B4614465B1946EB04044FF00001E7
:101C8C004FF00002A20242EA935299020B4614460C
:101C9C00184621467B684FF000041A462346FEF78F
:101CAC009FFA03460C46FB600A4B5B681B0C03F067
:101CBC00030301335B003B60FA683B68B2FBF3F350
:101CCC00BB6002E0044BBB6000BFBB681846143716
:101CDC00BD46F0BD003802400024F40040787D0180
:101CEC0080B400AF024B1B681846BD4680BC7047E1
:101CFC000800002080B500AFFFF7F2FF0146054B4E
:101D0C009B689B0A03F00703034AD35C21FA03F395
:101D1C00184680BD00380240B42F000880B586B04C
:101D2C0000AF786000237B6100233B617B681B68FC
:101D3C0003F00103002B05D17B681B6803F0020341
:101D4C00002B61D0A34B00221A60FEF72FFC7861A8
:101D5C0008E0FEF72BFC02467B69D31A022B01D953
:101D6C00032377E19C4B1B6803F00063002BF0D13D
:101D7C007B681B6803F00103002B09D07B685B6850
:101D8C009A017B689B681B0793491343C1F8843005
:101D9C007B681B6803F00203002B1FD08E4BD3F81B
:101DAC0084301B0F03F007033B617B685B689A016F
:101DBC007B68DB681B061A433B691B078649134388
:101DCC00C1F88430844BD3F88C3023F01F027B682D
:101DDC00DB69013B80491343C1F88C307D4B0122F8
:101DEC001A60FEF7E3FB786108E0FEF7DFFB0246C2
:101DFC007B69D31A022B01D903232BE1764B1B6889
:101E0C0003F00063002BF0D07B681B6803F0040325
:101E1C00002B05D17B681B6803F00803002B79D0DD
:101E2C006E4B00221A60FEF7C1FB786108E0FEF7EA
:101E3C00BDFB02467B69D31A022B01D9032309E1AE
:101E4C00654B1B6803F00053B3F1005FEFD07B6868
:101E5C001B6803F00403002B20D05F4BD3F88830B1
:101E6C001B0F03F007033B617B681B699A017B68BE
:101E7C005B691B061A433B691B0757491343C1F89F
:101E8C008830554BD3F88C3023F4F8527B681B6A9E
:101E9C00013B1B0250491343C1F88C307B681B6813
:101EAC0003F00803002B1ED04B4BD3F888301B0ECD
:101EBC0003F00F033B617B681B699A013B691B06AE
:101ECC001A437B689B691B0743491343C1F888304D
:101EDC00414BD3F88C3023F440327B685B6A3E492B
:101EEC001343C1F88C303D4B01221A60FEF75EFBA8
:101EFC00786108E0FEF75AFB02467B69D31A022B85
:101F0C0001D90323A6E0344B1B6803F00053B3F153
:101F1C00005FEFD17B681B6803F02003002B00F0FF
:101F2C008D800023FB602C4B1B6C2B4A43F08053A1
:101F3C001364294B1B6C03F08053FB60FB68284B2C
:101F4C001B68274A43F480731360FEF72FFB7861FC
:101F5C0008E0FEF72BFB02467B69D31A022B01D952
:101F6C00032377E01E4B1B6803F48073002BF0D027
:101F7C00194B1B6F03F440733B613B69002B39D049
:101F8C007B689B6A03F440733A699A4232D0124BD5
:101F9C001B6F23F440733B61124B01221A60114BEF
:101FAC0000221A600C4A3B6913670B4B1B6F03F042
:101FBC000103012B1ED1FEF7F9FA786114E0FEF74C
:101FCC00F5FA02467B69D31A41F2883293420BD957
:101FDC0003233FE06800474200380240700047424C
:101FEC0000700040400E47421C4B1B6F03F0020375
:101FFC00002BE4D07B689B6A03F44073B3F5407FFD
:10200C000DD1164B9B6823F4F8127B689B6A23F066
:10201C00704323F44073114913438B6005E00F4B5D
:10202C009B680E4A23F4F81393600C4B1A6F7B6871
:10203C009B6AC3F30B03094913430B677B681B684B
:10204C0003F01003002B04D07B6893F82C20044B76
:10205C001A60002318461837BD4680BD0038024070
:10206C00E011474280B582B000AF786039607B6880
:10207C00002B01D1012325E07B6893F82C30DBB2D7
:10208C00002B06D17B68002283F82D20786800F0A5
:10209C00BFFE7B68022283F82C207B681A687B6861
:1020AC0004331946104600F075F87B6818687B6895
:1020BC005B681A46396800F0DFF87B68012283F808
:1020CC002C20002318460837BD4680BD80B582B051
:1020DC0000AF78607B68002B01D1012356E07B6850
:1020EC0000229A627B6893F85130DBB2002B06D148
:1020FC007B68002283F85020786800F0AFFD7B6885
:10210C00022283F851207B681B681A687B681B6865
:10211C0022F040021A607B685A687B689B681A43FD
:10212C007B68DB681A437B681B691A437B685B69B5
:10213C001A437B689B6903F400731A437B68DB6961
:10214C001A437B681B6A42EA03017B689A6A7B68C4
:10215C001B680A431A607B689B691B0C03F0040123
:10216C007B685A6A7B681B680A435A607B681B68E9
:10217C00DA697B681B6822F40062DA617B680022F2
:10218C005A657B68012283F85120002318460837D2
:10219C00BD4680BD80B485B000AF78603960002347
:1021AC00FB600023BB603B681B68012B29D07B685C
:1021BC001B68FB60FB6823F4FF4323F07F03FB6089
:1021CC003B685A683B689B681A433B68DB681A4358
:1021DC003B681B691A433B685B691A433B689B6904
:1021EC001A433B68DB691A433B681B6A1A433B681A
:1021FC005B6A1343FA681343FB607B68FA681A60E6
:10220C0034E07B681B68FB60FB6823F4F843FB60DD
:10221C003B68DA693B681B6A1A433B685B6A134389
:10222C00FA681343FB607B685B68BB60BB6823F494
:10223C00FF4323F07F03BB603B685A683B689B6895
:10224C001A433B68DB681A433B681B691A433B68BB
:10225C005B691A433B689B691343BA681343BB60C1
:10226C007B68FA681A607B68BA685A600023184663
:10227C001437BD4680BC704780B487B000AFF8609F
:10228C00B9607A6000237B6100233B617B68012B82
:10229C002ED0FB689B687B617B6903F070437B618C
:1022AC00BB681B685A1EBB685B68013B1B011A4369
:1022BC00BB689B68013B1B021A43BB68DB68013B94
:1022CC001B031A43BB681B69013B1B041A43BB6805
:1022DC005B69013B1B051A43BB689B69013B1B06F1
:1022EC0013437A6913437B61FB687A699A603BE01C
:1022FC00FB689B687B617B6923F4700323F4704358
:10230C007B61BB68DB68013B1A03BB685B69013B03
:10231C001B0513437A6913437B61FB68DB683B61E4
:10232C003B6903F070433B61BB681B685A1EBB687A
:10233C005B68013B1B011A43BB689B68013B1B029A
:10234C001A43BB681B69013B1B041A43BB689B699E
:10235C00013B1B0613433A6913433B61FB687A69E3
:10236C009A60FB683A69DA60002318461C37BD4650
:10237C0080BC704780B500AFFEF7B4F800F00EF8E3
:10238C0000F03CFA00F094F800F0EAF900F0C2F822
:10239C0000F000F900F0AEF9FEE7000080B5A0B047
:1023AC0000AF07F1500330220021184600F0E0FD89
:1023BC0007F13C0300221A605A609A60DA601A61D5
:1023CC0007F10C0330220021184600F0D1FD364BEA
:1023DC005B6823F03F03344A43F010035360324BE5
:1023EC005B68314A23F4800353600023BB602E4B9F
:1023FC001B6C2D4A43F0805313642B4B1B6C03F066
:10240C008053BB60BB6800237B60284B1B6823F4A4
:10241C004043264A43F480431360244B1B6803F467
:10242C0040437B607B6802233B650123FB651023E3
:10243C003B660023BB660023FB6607F1500318467E
:10244C00FFF778F80346002B01D000F043FA0F2376
:10245C00FB6300233B6400237B640023BB640023E9
:10246C00FB6407F13C0300211846FFF7A5FA03466D
:10247C00002B01D000F02EFA0823FB604FF4D87328
:10248C00FB6102237B6200233B6307F10C031846BC
:10249C00FFF744FC0346002B01D000F01BFA00BFF1
:1024AC008037BD4680BD00BF003802400070004040
:1024BC0080B500AF154B164A1A60144B00225A60B7
:1024CC00124B02229A60114B0022DA600F4B002251
:1024DC009A620E4B0222DA620C4B00221A630B4BEF
:1024EC0000225A630948FEF74EF90346002B01D02F
:1024FC0000F0F0F901210548FEF78EF90346002B98
:10250C0001D000F0E7F900BF80BD00BF2C00002017
:10251C0000B0024080B500AF1B4B1C4A1A601A4B2E
:10252C001B4A5A60184B00229A60174B0022DA6043
:10253C00154B4FF480421A61134B00225A61124B17
:10254C0000229A61104B0022DA610F4B00221A62B2
:10255C000D48FEF79DFB0346002B01D000F0BAF9A5
:10256C0000210948FEF7C8FC0346002B01D000F0FF
:10257C00B1F900210448FEF7FAFC0346002B01D008
:10258C0000F0A8F900BF80BD6C000020005C00408A
:10259C00A086010080B59AB000AF07F13403342255
:1025AC000021184600F0E4FC3B463422002118467A
:1025BC0000F0DEFC4D4B4E4A1A604C4B00225A6028
:1025CC004A4B00229A60494B0022DA60474B0022AA
:1025DC001A61464B07225A61444B03229A61434BC2
:1025EC000E22DA61414B05221A62404B4FF4A7725E
:1025FC005A623E4BF5229A623C4B4FF4AA72DA6255
:10260C003A4BF7221A63394B002283F83420374BAC
:10261C00002283F83520354B002283F836203348CE
:10262C00FEF7E4FC0346002B01D000F053F9002325
:10263C007B630023BB630023FB6300233B64002309
:10264C007B640023BB640023FB644FF480633B6515
:10265C0005237B650023BB650023FB6500233B66DC
:10266C00002387F86430002387F86530002387F84F
:10267C00663007F13403002219461C48FEF786FD2C
:10268C000346002B01D000F025F900233B6000230A
:10269C007B600023BB600023FB6000233B610023B5
:1026AC007B610023BB614FF48063FB6105233B62BC
:1026BC0000237B620023BB620023FB62002387F8AC
:1026CC003030002387F83130002387F832303B4616
:1026DC00012219460548FEF759FD0346002B01D08F
:1026EC0000F0F8F800BF6837BD4680BDC000002080
:1026FC000068014080B500AF174B184A1A60164BA2
:10270C004FF482725A60144B00229A60124B0022D2
:10271C00DA60114B00221A610F4B00225A610E4BEA
:10272C004FF400729A610C4B0022DA610A4B0022C2
:10273C001A62094B00225A62074B00229A62064B1E
:10274C000A22DA620448FFF7C1FC0346002B01D0D1
:10275C0000F0C0F800BF80BD6801002000500140AF
:10276C0080B588B000AF3B1D00221A605A609A6099
:10277C00DA601A615A619A611E4B1F4A1A601D4B2E
:10278C0001225A601B4B00229A601A4B0422DA6019
:10279C00184B10221A61174B40225A61154B80229C
:1027AC009A61144B0022DA61124B00221A62114B0F
:1027BC0000225A620F4B00229A6210237B60102376
:1027CC00BB601023FB6010233B6110237B61102343
:1027DC00BB611023FB613B1D19460648FFF742FC09
:1027EC000346002B01D000F075F800BF2037BD4622
:1027FC0080BD00BFC0010020400100A080B489B0A2
:10280C0000AF0023FB61324B1B6B314A43F02003BA
:10281C0013632F4B1B6B03F02003FB61FB6900233D
:10282C00BB612B4B1B6B2A4A43F004031363284BED
:10283C001B6B03F00403BB61BB6900237B61244B5E
:10284C001B6B234A43F001031363214B1B6B03F0F7
:10285C0001037B617B6900233B611D4B1B6B1C4A95
:10286C0043F0020313631A4B1B6B03F002033B612F
:10287C003B690023FB60164B1B6B154A43F040036E
:10288C001363134B1B6B03F04003FB60FB680023CB
:10289C00BB600F4B1B6B0E4A43F0100313630C4BC6
:1028AC001B6B03F01003BB60BB6800237B60084B01
:1028BC001B6B074A43F008031363054B1B6B03F0B8
:1028CC0008037B607B6800BF2437BD4680BC704723
:1028DC000038024080B400AF00BFBD4680BC7047DA
:1028EC0080B483B000AF00237B600F4B5B6C0E4A4F
:1028FC0043F4804353640C4B5B6C03F480437B6068
:10290C007B6800233B60084B1B6C074A43F08053E9
:10291C001364054B1B6C03F080533B603B6800BF9A
:10292C000C37BD4680BC70470038024080B485B07F
:10293C0000AF78607B681B680A4A93420DD1002374
:10294C00FB60094B1B6B084A43F400031363064BF3
:10295C001B6B03F40003FB60FB6800BF1437BD4620
:10296C0080BC704700B002400038024080B58AB08D
:10297C0000AF786007F1140300221A605A609A6065
:10298C00DA601A617B681B68294A93424BD1002399
:10299C003B61284B1B6B274A43F004031363254B05
:1029AC001B6B03F004033B613B690023FB60214B71
:1029BC001B6B204A43F0010313631E4B1B6B03F08C
:1029CC000103FB60FB684FF400737B611223BB6156
:1029DC000123FB6103233B6204237B6207F1140395
:1029EC0019461548FDF7AAFF4FF480737B6112233B
:1029FC00BB610123FB6103233B6204237B6207F170
:102A0C00140319460D48FDF799FF0023BB60094BD1
:102A1C001B6C084A43F400031364064B1B6C03F451
:102A2C000003BB60BB6800BF2837BD4680BD00BF3C
:102A3C00005C0040003802400008024000000240E8
:102A4C0080B58EB000AF786007F1240300221A60C5
:102A5C005A609A60DA601A617B681B68774A934205
:102A6C0040F0E88000233B62754B5B6C744A43F08A
:102A7C0080635364724B5B6C03F080633B623B6A14
:102A8C000023FB616E4B1B6B6D4A43F020031363F9
:102A9C006B4B1B6B03F02003FB61FB690023BB61D9
:102AAC00674B1B6B664A43F001031363644B1B6B50
:102ABC0003F00103BB61BB6900237B61604B1B6BA3
:102ACC005F4A43F0020313635D4B1B6B03F002037D
:102ADC007B617B6900233B61594B1B6B584A43F06C
:102AEC0040031363564B1B6B03F040033B613B6984
:102AFC000023FB60524B1B6B514A43F004031363DE
:102B0C004F4B1B6B03F00403FB60FB680023BB60A3
:102B1C004B4B1B6B4A4A43F008031363484B1B6B2C
:102B2C0003F00803BB60BB684FF480637B62022335
:102B3C00BB620023FB6200233B630E237B6307F124
:102B4C00240319463F48FDF7F9FE41F658037B6212
:102B5C000223BB620023FB6200233B630E237B63D7
:102B6C0007F1240319463848FDF7E8FE03237B627E
:102B7C000223BB620023FB6200233B6309237B63BC
:102B8C0007F1240319463148FDF7D8FE4FF4706362
:102B9C007B620223BB620023FB6200233B630E2398
:102BAC007B6307F1240319462848FDF7C7FE4FF451
:102BBC000C637B620223BB620023FB6200233B633A
:102BCC000E237B6307F1240319462148FDF7B6FE5B
:102BDC004FF498637B620223BB620023FB620023E9
:102BEC003B630E237B6307F1240319461948FDF759
:102BFC00A5FE48237B620223BB620023FB620023F9
:102C0C003B630E237B6307F1240319461248FDF73F
:102C1C0095FE4FF4A0537B620223BB620023FB6240
:102C2C0000233B6309237B6307F1240319460848FF
:102C3C00FDF784FE00BF3837BD4680BD00680140FB
:102C4C000038024000140240000002400004024020
:102C5C000018024000080240000C024080B58AB007
:102C6C0000AF786007F1140300221A605A609A6072
:102C7C00DA601A617B681B68194A93422CD10023D5
:102C8C003B61184B5B6C174A43F480135364154B30
:102C9C005B6C03F480133B613B690023FB60114BBD
:102CAC001B6B104A43F0200313630E4B1B6B03F09A
:102CBC002003FB60FB684FF460737B610223BB61F4
:102CCC000023FB6103233B6205237B6207F11403A2
:102CDC0019460548FDF732FE00BF2837BD4680BDBA
:102CEC0000500140003802400014024080B586B00C
:102CFC0000AF3B1D00221A605A609A60DA601A61BC
:102D0C003B4B1B68002B6FD1394B01221A600023FF
:102D1C003B60384B9B6B374A43F001039363354B55
:102D2C009B6B03F001033B603B684FF63F037B60FA
:102D3C000223BB600023FB6003233B610C237B61FC
:102D4C003B1D19462C48FDF7F9FD01237B6002233E
:102D5C00BB600023FB6003233B610C237B613B1DA9
:102D6C0019462648FDF7EAFD48F233137B6002232F
:102D7C00BB600023FB6003233B610C237B613B1D89
:102D8C0019461F48FDF7DAFD4FF683737B6002236B
:102D9C00BB600023FB6003233B610C237B613B1D69
:102DAC0019461848FDF7CAFD4CF203737B600223E9
:102DBC00BB600023FB6003233B610C237B613B1D49
:102DCC0019461148FDF7BAFD60237B600223BB60F6
:102DDC000023FB6003233B610C237B613B1D1946E5
:102DEC000A48FDF7ABFD00E000BF1837BD4680BDBB
:102DFC00F401002000380240001402400008024098
:102E0C000018024000100240000C02400004024076
:102E1C0080B582B000AF7860FFF768FF00BF08375D
:102E2C00BD4680BD80B400AF00BFBD4680BC7047BE
:102E3C0080B400AFFEE780B400AFFEE780B400AF13
:102E4C00FEE780B400AFFEE780B400AF00BFBD4624
:102E5C0080BC704780B400AF00BFBD4680BC7047DB
:102E6C0080B400AF00BFBD4680BC704780B500AFDA
:102E7C00FDF78AFB00BF80BD80B400AF124B1B680E
:102E8C00114A43F0010313600F4B00229A600E4B62
:102E9C001B680D4A23F0847323F4803313600A4BB0
:102EAC000A4A5A60084B1B68074A23F480231360B4
:102EBC00054B0022DA60064B4FF000629A6000BFAF
:102ECC00BD4680BC704700BF003802401030002463
:102EDC0000ED00E0DFF834D0002103E00C4B5B5830
:102EEC00435004310B480C4B42189A42F6D30B4A10
:102EFC0002E0002342F8043B094B9A42F9D3FFF756
:102F0C00BBFF00F011F8FFF735FA70470000032003
:102F1C00CC2F0008000000200C0000200C0000202A
:102F2C00F8010020FEE7000070B50D4D0D4C641B40
:102F3C00A4100026A64209D10B4D0C4C00F020F831
:102F4C00641BA4100026A64205D170BD55F8043BA5
:102F5C0098470136EEE755F8043B98470136F2E7FF
:102F6C00C42F0008C42F0008C42F0008C82F000865
:102F7C0002440346934200D1704703F8011BF9E762
:102F8C00F8B500BFF8BC08BC9E467047F8B500BF4A
:082F9C00F8BC08BC9E4670471A
:102FA40000000000000000000102030406070809F5
:082FB40000000000010203040B
:082FBC0060D2FF7F010000005C
:042FC400D10100082F
:042FC800AD0100084F
:0C2FCC0010000000010000000024F400D0
:0400000508002EE1E0
:00000001FF
